:1000000038140400000000000000000000000000A0
:1000100000000000000000000000000000000000E0
:1000200000000000000000000000000000000000D0
:1000300000000000000000000000000000000000C0
:1000400000000000000000000000000000000000B0
:102870002F892000F0FF270020A0B70010002000C3
:1028800034A0B700400020004420B70058140200D4
:102890000000000062140200000000009FFF07001B
:1028A000DDFF0700B4FF0700FEFF3700FFFF370022
:10271C008A1F78008B1F78008C1F78001820EF0020
:10272C002BC0B3001420EF0000FE07004009280066
:10273C00800578001420EF003DFF07000B582200A5
:10274C000C0020000AC2B300C2FF07002BC0B3006C
:10275C008A8020004EFF070060F707004F067800C4
:0C276C00CF0578004F0578000000060043
:101F38008A1F78008B1F78000A0037000B4578004D
:101F48008C457800B9FE07000B0037000B45780078
:101F58008C45780048FF07000700370010C0B30021
:101F6800050037006054E100F4FF32006154E100DD
:101F7800F6FF3200F9FF3700CF0578004F057800EB
:041F8800000006004F
:101A3400F0FF2F002AA3B700F0FF2F002CA3B7005C
:101A4400F0FF2F006CA3B7003E0037001600AE0075
:101A5400C702A9001600AF00C702A8005200370051
:101A64001600AE00CC22A9001600AF00CC22A800BC
:101A74004D0037001600AE00CC42A9001600AF009E
:101A8400CC42A800480037001600AE00DEC2A90010
:101A94001600AF00DEC2A800430037001600AE00F7
:101AA400DEE2A9001600AF00DEE2A8003E00370027
:101AB4001600AE00DF02A9001600AF00DF02A80086
:101AC400390037001600AE00D202A9001600AF009C
:101AD400D202A800340037001600AE00C182A9006B
:101AE4001600AF00C182A8002F0037001600AE0018
:101AF400DE82A9001600AF00DE82A8002A003700AB
:101B04001600AE00DEA2A9001600AF00DEA2A800F7
:101B1400250037001600AE00C042A9001600AF0031
:101B2400C042A800200037001600AE00C062A90021
:101B34001600AF00C062A8001B00370010C0B3003D
:101B44001A0037006054E100C0FF32006154E10024
:101B5400C3FF32006254E100C6FF32006354E10067
:101B6400C9FF32006454E100CCFF32006554E10047
:101B7400CFFF32006654E100D2FF32006754E10027
:101B8400D5FF32006854E100D8FF32006954E10007
:101B9400DBFF32006A54E100DEFF32006B54E100E7
:101BA400E1FF3200E5FF370000C0B300000006008B
:101C8000F0FF2F002AA3B700F0FF2F002CA3B7000E
:101C9000F0FF2F006CA3B7003E0037001600AE0027
:101CA000C722A9001600AF00C722A80052003700C3
:101CB0001600AE00CC62A9001600AF00CC62A800EE
:101CC0004D0037001600AE00CC82A9001600AF0010
:101CD000CC82A800480037001600AE00DEC2A90082
:101CE0001600AF00DEC2A800430037001600AE00A9
:101CF000DEE2A9001600AF00DEE2A8003E003700D9
:101D00001600AE00DF02A9001600AF00DF02A80037
:101D1000390037001600AE00D222A9001600AF002D
:101D2000D222A800340037001600AE00C1A2A900DC
:101D30001600AF00C1A2A8002F0037001600AE00A9
:101D4000DF82A9001600AF00DF82A8002A0037005A
:101D50001600AE00DFA2A9001600AF00DFA2A800A7
:101D6000250037001600AE00C042A9001600AF00E3
:101D7000C042A800200037001600AE00C062A900D3
:101D80001600AF00C062A8001B00370010C0B300EF
:101D90001A0037006054E100C0FF32006154E100D6
:101DA000C3FF32006254E100C6FF32006354E10019
:101DB000C9FF32006454E100CCFF32006554E100F9
:101DC000CFFF32006654E100D2FF32006754E100D9
:101DD000D5FF32006854E100D8FF32006954E100B9
:101DE000DBFF32006A54E100DEFF32006B54E10099
:101DF000E1FF3200E5FF370000C0B300000006003D
:10243C008A1F7800080037000B0578006DFE070036
:10244C000A0037000B057800F8FD0700070037007D
:10245C0010C0B300050037006054E100F6FF3200F5
:10246C006154E100F7FF3200F9FF37004F057800A7
:04247C000000060056
:101E00008A1F78008B1F78001A05BE00C0FB0700F0
:101E100000C0B300CF0578004F0578000000060031
:100D10000400FA0091FE07008DFE0700421F20002C
:100D200003002000E0FD07000001BE00829FBE001E
:100D30008A9FBE000200BE000268290083092000CD
:100D40000002EB0034FE07004F05BE004F01BE005D
:100D500000079800110798000200BE000A01BE00BB
:100D60000002EB002CFE07000001BE0060004700FF
:100D700030015100A081590061005100E08059000C
:100D8000A010880017E2A800D7FD07001822EF0086
:100D9000CEFD0700BFFD07000080FA00000006003E
:10075C000000FA000020200000438800004E20001A
:10076C0010438800809D2000F0428800E035200076
:10077C00D042880040452000E0428800E08A2000FA
:0C078C00204388000080FA0000000600F6
:0C07500000F42100010020000000060061
:1004E80038002000578D20000E20ED00FEFF3A0056
:0C04F8001020ED00FCFF3A0000000600A0
:1004CC000000FA00CBFF07000000E20001003A0038
:0C04DC00FCFF37000080FA000000060062
:100400000000FA000260EF001602AF000260EC008C
:100410000060EF001642AF000060EC008180FB003E
:100420000080FB00808070000060EF001662AF006B
:100430000060EC000080FB00808070000060EF0036
:100440001682AF000060EC000080FB00808070002E
:100450000060EF001622AF000060EC000080FB009F
:10046000808070000060EF0019C2AF000060EC00F7
:100470000080FB00008070000000E2000060EF00E0
:1004800001003A000060EC000080FB000080FA00F0
:040490000000060062
:100494000000000000000000000000000000000058
:0404A400000006004E
:1004A8000000FA00020AB800500088000200B800F4
:1004B80081004200032AB800810042000080FA004F
:0404C800000006002A
:100618000000FA00020007005A030400000000006E
:100628000800E20002003A0010000700000006007F
:10063800839F68000200E20002003D006000100095
:10064800E08018000600E20002003D006001110091
:10065800E0811900050007004F00E00002003B00A0
:1006680060001000E0801800000006006022B8005A
:10067800060220000000D0008180D2000482D2004F
:100688008582D2000000A8000202520083825A002C
:1006980003003B000202420083824A000000A100DE
:1006A8000603E900F3FF3A00000006000080FA00A4
:0406B8000000060038
:101C38008A1F78008B1F78001A05BE0032FC070047
:101C480000C0B300CF0578004F05780000000600FB
:102660008A1F78008B1F78008C1F780012003700BB
:102670000B0578008C0578006AFD0700190037000B
:102680000B0578008C05780064FD07001500370005
:102690000B0578008C0578006FFD070011003700EE
:1026A0000B0578008C05780070FD07000D003700E1
:1026B00010C0B3000B0037006054E100ECFF3200A3
:1026C0006154E100EEFF320000C2B3000054E100AB
:1026D000EFFF320000C3B3000054E100F0FF32000E
:1026E000F3FF37004F067800CF0578004F057800DC
:0426F00000000600E0
:101C24007BFB070080432000804488000020EF00F5
:041C340000000600A6
:100A14000800FA0080432000A0438800004A200018
:100A2400B0438800604D2000C0438800C0422000CD
:100A3400D04388003022EF000000280032A2B70023
:100A44003062A90041FF07000001BE00803E200083
:100A54000100200093FE07000001BE00A8FE07006D
:100A64004100DE0064004000800078006000470020
:100A74000A88BE008100E900030035001018D00088
:100A84001090D200FBFF3700829FBE008A9FBE00F9
:100A94000200BE000E0190009E0190000002EB00D7
:100AA40099FE07004F05BE004F01BE0020079800C5
:100AB400310798008A9FBE000200BE000E0190001C
:100AC4009E0190000002EB00D2FE07004F05BE001D
:100AD4008001780001027800600047005001D100D5
:100AE400C080D300640047003008E1002090E1009A
:100AF4000700310061804100E0004A008002780074
:100B040001037800050178008601780002003700AF
:100B140003017800840178000280710033003A00F8
:100B24000AFF07000001BE00803E200001002000F3
:100B34005CFE07000001BE0071FE07004100DE00FC
:100B440000A0EC0080007800600047000A88BE0026
:100B54008100E900030035001018D0001090D20085
:100B6400FBFF3700829FBE000200BE000E01900012
:100B74009E0190000002EB0063FE07004F01BE00DF
:100B840020079800310798000200BE000E01900073
:100B94009E0190000002EB009EFE07008001780099
:100BA40001027800600047005001D100C080D300EA
:100BB400640047003008E1002090E10007003100A4
:100BC40061804100E0004A0080027800010378005F
:100BD40005017800860178000200370003017800DF
:100BE400840178003062A8000000370061005100E1
:100BF400E0805900C01188003222A90031E2A80027
:100C04003342A80037FE070036FE07000080FA00D2
:040C140000000600D6
:080504002000200000000600A9
:10050C000000FA0002000700DA02040000000000FC
:10051C000800E20002003A0010000700000006008C
:10052C00811F78000200E20002003D006000100014
:10053C00E08018000600E20002003D00600111009E
:10054C00E0811900050007004F00E00002003B00AD
:10055C0060001000E0801800000006000200070098
:10056C000480BE00000006006022B80006022000D5
:10057C000000D0008180D2000482D2008582D2009B
:10058C000000A8000202520083825A0003003B00C4
:10059C000202420083824A000000A1000603E90027
:1005AC00F3FF3A00000006000080FA00000006008D
:081C1C0060C0B30000000600E7
:101C58006EFB070080432000804488000020EF00CE
:041C68000000060072
:101C6C0045FD070060442000804488000020EF0000
:041C7C00000006005E
:101184000800FA0060442000A0438800E0472000E3
:10119400B0438800A0482000C04388004049200094
:1011A400D04388002022EF000000280022A2B700CC
:1011B4002062A90065FD07000001BE00803E2000FA
:1011C40001002000B7FC07000001BE00CCFC0700B2
:1011D4004100DE00640040008000780060004700A9
:1011E4000A88BE008100E900030035001018D00011
:1011F4001090D200FBFF3700829FBE008A9FBE0082
:101204000200BE000E0190009E0190000002EB005F
:10121400BDFC07004F05BE004F01BE00200798002B
:10122400310798008A9FBE000200BE000E019000A4
:101234009E0190000002EB00F6FC07004F05BE0083
:101244008001780001027800600047005001D1005D
:10125400C080D300640047003008E1002090E10022
:101264000700310061804100E0004A0080027800FC
:101274000103780005017800860178000200370038
:1012840003017800840178000280710033003A0081
:101294002EFD07000001BE00803E2000010020005A
:1012A40080FC07000001BE0095FC07004100DE0041
:1012B40000A0EC0080007800600047000A88BE00AF
:1012C4008100E900030035001018D0001090D2000E
:1012D400FBFF3700829FBE000200BE000E0190009B
:1012E4009E0190000002EB0087FC07004F01BE0046
:1012F40020079800310798000200BE000E019000FC
:101304009E0190000002EB00C2FC070080017800FF
:1013140001027800600047005001D100C080D30072
:10132400640047003008E1002090E100070031002C
:1013340061804100E0004A008002780001037800E7
:101344000501780086017800020037000301780067
:10135400840178002062A800000037006100510079
:10136400E0805900401188002222A90021E2A8004F
:101374002342A8005BFC07005AFC07000080FA0027
:04138400000006005F
:10249C000200FA008A1F78008A007800D000200021
:1024AC0000479800A0002000104798002500370036
:1024BC0001057800BCFD07002900370001007800F9
:1024CC001004E00008003200801F78008A9FBE00D4
:1024DC0000057800B4FD07004F05BE004F007800E2
:1024EC000020EC00F6FF37001D00370001007800DB
:1024FC001004E00008003200801F78008A9FBE00A4
:10250C0000057800A8FD07004F05BE004F007800BD
:10251C000020EC00F6FF3700600047008A9FBE00E9
:10252C0000057800A0FD0700610047000005780059
:10253C009DFD07004F05BE000900370060C0B300C9
:10254C0007003700605CE100D9FF3200615CE100FC
:10255C00DAFF3200625CE100E4FF3200F7FF370083
:0C256C004F0578000080FA000000060017
:101BB4008A1F78001A85FB00804480000000010021
:0C1BC4000020EF004F0578000000060034
:10088C000000FA002302AF0001003700FDFF370023
:0C089C002A1188000080FA00000006000D
:100870000000FA003302AF0001003700FDFF37002F
:0C088000AA1188000080FA0000000600A9
:102818008A1F78008B1F78008C1F7800FCC7B300D4
:10282800AB082800AA05280051FF07001AC0B3000A
:1028380057FF070058012000B78525000E20ED003E
:10284800FEFF3A001020ED00FCFF3A000BC0B30079
:102858000AC0B30051FF07004F067800CF05780083
:082868004F0578000000060096
:10257800608620000C4878008A1F78000B057800D8
:102588001BFD07004F0578008FFD070000000600BF
:1019F8001A00780080438800E20045001100780052
:101A080070438800E40045001100780050438800C6
:101A1800E60045001100780090438800E800450082
:0C1A2800110078006043880000000600F8
:101BD00064004500100078004043880000000600C3
:0C2598004043800000000100000006002D
:101C08001400AE00CB02A9001400AF00CB02A8005C
:041C180000000600C2
:101BF4001400AE00D022A9001400AF00D022A80027
:041C040000000600D6
:101BE0001400AE00D042A9001400AF00D042A800FB
:041BF00000000600EB
:101E20001400AE00E2C2A9001400AF00E2C2A80094
:041E300000000600A8
:101EFC001400AE00E2E2A9001400AF00E2E2A80078
:041F0C0000000600CB
:101F24001400AE00E302A9001400AF00E302A8000D
:041F340000000600A3
:101EC0001400AE00D602A9001400AF00D602A8008C
:041ED0000000060008
:101EE8001400AE00C582A9001400AF00C582A80086
:041EF80000000600E0
:101ED4001400AE00E282A9001400AF00E282A80060
:041EE40000000600F4
:101F10001400AE00E2A2A9001400AF00E2A2A800E3
:041F200000000600B7
:101E5C001400AE00C442A9001400AF00C442A80094
:041E6C00000006006C
:101E48001400AE00C462A9001400AF00C462A80068
:041E58000000060080
:101E34001400AE00CB22A9001400AF00CB22A800EE
:041E44000000060094
:101E70001400AE00D062A9001400AF00D062A80028
:041E80000000060058
:101EAC001400AE00D082A9001400AF00D082A800AC
:041EBC00000006001C
:101E98001400AE00E2C2A9001400AF00E2C2A8001C
:041EA8000000060030
:101E84001400AE00E2E2A9001400AF00E2E2A800F0
:041E94000000060044
:1019E4001400AE00E302A9001400AF00E302A80053
:0419F40000000600E9
:101438001400AE00D622A9001400AF00D622A800DE
:04144800000006009A
:101424001400AE00C5A2A9001400AF00C5A2A80014
:0414340000000600AE
:101460001400AE00E382A9001400AF00E382A800DC
:041470000000060072
:10144C001400AE00E3A2A9001400AF00E3A2A800B0
:04145C000000060086
:1013D8001400AE00C442A9001400AF00C442A80023
:0413E80000000600FB
:101410001400AE00C462A9001400AF00C462A800AA
:0414200000000600C2
:1025A4000200FA008A1F78008B1F78008C1F7800C5
:1025B4008D1F7800600047000A4878000020EC0076
:1025C4000B48780088FB0700E00047006086200085
:1025D4001A20EF002C0020008105780010457800B7
:1025E40022FC0700CF0678004F067800CF0578005C
:0C25F4004F0578000080FA00000006008F
:1013EC000200FA00000020000007980081438000F2
:1013FC0001000100E0004700110070000080FA00BD
:04140C0000000600D6
:1007C4000000FA000260EF000602AF000260EC00D5
:1007D4000060EF000642AF000060EC008180FB0087
:1007E4000080FB00808070000060EF000662AF00B4
:1007F4000060EC000080FB00808070000060EF006F
:100804000682AF000060EC000080FB008080700076
:100814000060EF000622AF000060EC000080FB00E7
:10082400808070000060EF0009C2AF000060EC003F
:100834000080FB00008070000000E2000060EF0018
:1008440001003A000060EC000080FB000080FA0028
:04085400000006009A
:100958000000FA000420EF00007122000010E100FE
:1009680006003E0095FF07000000E200010032008B
:10097800020037000420EC00F7FF37001071220056
:100988000010E10002003900F00F200003003700DA
:100998000602A80065FF07000020EF000080FA00AB
:0409A8000000060045
:100734000000FA008620AF0001003700FDFF3700FB
:0C0744008620A9000080FA0000000600DA
:1009C0000000FA000420EF00007122000010E10096
:1009D00006003E008AFE07000000E200010032002F
:1009E000020037000420EC00F7FF370010712200EE
:1009F0000010E10002003900F00F20000300370072
:100A00001602A80044FF07000020EF000080FA0053
:040A100000000600DC
:100718000000FA008A40AF0001003700FDFF3700F3
:0C0728008A40A9000080FA0000000600D2
:1008FC000000FA0000000000000000002682BF008B
:08090C000080FA000000060063
:100914000000FA002282BF00610060000080FA003B
:0409240000000600C9
:100928000000FA000020EF002302AF000020EC00D6
:080938000080FA000000060037
:100940000000FA0000000000000000003682BF0036
:080950000080FA00000006001F
:1009AC000000FA003282BF00610060000080FA0093
:0409BC000000060031
:100858000000FA000020EF003302AF000020EC0097
:080868000080FA000000060008
:101670000400FA008A1F780000002000100798007C
:101680000B0798000A80FB004100DD008C9FBE0024
:101690000045780091438000010001004F06BE0024
:1016A00062014700E2004700920870008C00780059
:1016B00061005600000678000200E2000F003200D0
:1016C0000E0090008C9FBE008A9FBE0010457800DF
:1016D00091438000010001004F05BE004F06BE008F
:1016E00062014700E2004700920870008E009000FF
:1016F0006000470061884000ECFF3700606CE1004B
:1017000006003A00704380008C9FBE008A9FBE0096
:10171000000001004F05BE004F06BE00616CE100F5
:1017200006003A00804380008C9FBE008A9FBE0066
:10173000000001004F05BE004F06BE001E009000D5
:0C1740004F0578000080FA000000060051
:100798000000FA000A80FB0002A2B70008E2AE00DF
:1007A800020037001000200002003700DFFF0700BA
:0C07B8000020EF000080FA0000000600A6
:1008A8000000FA000A80FB0012A2B70018E2AE00AE
:1008B80002003700100020000200370094FF0700F4
:0C08C8000020EF000080FA000000060095
:1008D4000000FA000682BF007F0060000000E20012
:1008E40001003200FBFF37000622A80090FF07003A
:0808F4000080FA00000006007C
:101388000000FA000682BF007F0060000000E20053
:1013980001003200FBFF37000642A800E3FC07000B
:0813A8000080FA0000000600BD
:1013B0000000FA000682BF007F0060000000E2002B
:1013C00001003200FBFF37001622A800D2FC070004
:0813D0000080FA000000060095
:10115C000000FA001682BF007F0060000000E20071
:10116C0001003200FBFF37001642A80067FD0700A4
:08117C000080FA0000000600EB
:102778008A1F78008B1F78008C1F78000AC0B3006E
:10278800DAFF07001AC0B3009BFF0700204088004B
:1027980031408800FBFD0700004088001140880098
:1027A800CC8720002A4080003B4080000AFE0700BA
:1027B8001BC0B3006A84200036FF07002BC0B3009B
:1027C800CA87200033FF0700CC8720000A4080001A
:1027D8001B40800000FE07001BC0B3003A832000A6
:1027E8002CFF07002BC0B300CA87200029FF070071
:1027F8002BC0B300DA81200026FF07001EFF070068
:102808004F067800CF0578004F05780000000600D5
:1026F4008A1F78008B1F78000A80FB00610070003D
:10270400804578001AC0B300A5FF0700CF05780004
:082714004F05780000000600EB
:102600000200FA008A1F78007AC0B300F9FB0700C5
:10261000004798006AC0B300F6FB0700E0004700DF
:102620009180FB00E7806000C808DD000080FB00AF
:10263000008070008000EB0093FB07000200280080
:102640001344240041FC0700D2CC2C00C3DC23003F
:1026500057FC07004F0578000080FA0000000600D4
:1015F4000400FA008A1F78008B1F78008C1F780083
:101604008D1F7800600047000A48780076FF0700C5
:10161400E0004700608620001A20EF001C00200034
:101624008105780010457800100007006EFF070060
:10163400E1004700608620001A20EF002C00200003
:10164400810578001045780072FD070061004700AD
:1016540010407800CF0678004F067800CF05780058
:0C1664004F0578000080FA00000006002E
:100C18000400FA008A1F78000000200010079800DE
:100C28000B0798000A80FB004100DD00610070009E
:100C38008C9FBE00004578009143800001000100B0
:100C48004F06BE0062014700E200470092087000AC
:100C580061005600000678001800E2000D0032001E
:100C68008C9FBE008A9FBE001420EF006143800065
:100C7800010001004F05BE004F06BE008E00900027
:100C8800804878008E00900060004700618840002E
:100C9800EFFF37008C9FBE008A9FBE001A0020001D
:100CA80061438000010001004F05BE004F06BE00F1
:100CB8008E00900080487800606CE10006003A00E1
:100CC800704380008C9FBE008A9FBE000000010018
:100CD8004F05BE004F06BE00616CE10006003A00F9
:100CE800504380008C9FBE008A9FBE000000010018
:100CF8004F05BE004F06BE001E0090004F0578004D
:080D08000080FA000000060063
:1005BC000000FA000682BF007F0060000000E2002D
:1005CC0001003200FBFF37000662A800560007004E
:1005DC000682BF007F0060000000E20001003200D4
:1005EC00FBFF37001400E2000200320006A2A80054
:1005FC000100370006A2A9000682A8004A000700E5
:0C060C0000C2BF000080FA0000000600E1
:1006BC000000FA001682BF007F0060000000E2001C
:1006CC0001003200FBFF37001662A8000F00070084
:1006DC001682BF007F0060000000E20001003200C3
:1006EC00FBFF37001400E2000200320016A2A80043
:1006FC000100370016A2A9001682A800030007000B
:0C070C0010C2BF000080FA0000000600D0
:101488000000FA0002000700F60A0400000000004D
:101498000400E20006003A000005EB000200E2004A
:1014A8000F003E000000E200270032000C00370069
:1014B800A10088000200E2000400350008003C009A
:1014C8000000E20020003200050037006000100034
:1014D800E080180002003B0001F02C001A003700E1
:1014E8000084BE006011B8006B0920000982CF009B
:1014F800020039000882CF000441B000694252005E
:101508000E00320008003B00828171006101640016
:101518008904D1000884D3008B05E8000442E80060
:10152800F9FF3A00050037000804440089844C009C
:101538008B05E9000442E900FBFF3A0003000700BD
:101548000AF0A70003E0A8000000060081002000C0
:10155800618055000B003D000B00200061FE2F004C
:101568000100E1001D003400828171006101640006
:101578008904D1000884D3000000E800FAFF3A008B
:101588007100200061006400030070000200600028
:101598000900320061044400E0844C000988A50079
:1015A800050032008B05E8006808E10002003A00F7
:1015B8008904D1000884D300F20F20000258E1000A
:1015C80005003D00C75DDD00F907B20089807500A0
:1015D80008008800000006000BF827001B008800A0
:0C15E800000005000080FA000000060072
:10174C000000FA0007E0AA00CBFD07000080FA00B9
:04175C000000060083
:100E84000000FA0002000700AA08040000000000A5
:100E9400889FBE008A9FBE008C1F780059000700FF
:100EA400600033006450E1004F0032006420E10030
:100EB4005200320003826C0007003B000905D00099
:100EC4000306D000820F54000C065D0002003900B6
:100ED4000200320039008800C30088008582550072
:100EE40004003D000003FD008103FD008502EA00CB
:100EF4008B854200840F720002003B0060001000EA
:100F0400E08018006011B8000005EB007A28E100C9
:100F14000A00390006008800C75DDD00F707B2004B
:100F2400878075002D003700828171002A008800B7
:100F3400610560008180D1000080D3008502E90052
:100F4400F9FF3B00060440008784480002003B0090
:100F540060041400E0841C000988A3000700320028
:100F64008A81710082817100610164008904D10069
:100F74000884D3008B05E800170037000978A30024
:100F840013003A001600E200130034008B05E90058
:100F94000804440089844C000A4474000978A300BE
:100FA4000D003A001600E200070034008B05E9004A
:100FB4000804440089844C0001003A000B0020001E
:100FC4000978A300F7FF32000001EB0002003700AC
:100FD400828171002A008800220007000CF0A7001B
:100FE40003E0A800180037006420E10002003A0082
:100FF400838F6C00180033000881BE000280BE009D
:10100400110037000084BE003C0007000083BE00CE
:101014000485BE000280BE0038000700844F7500BE
:10102400000006000280BE006450E10005003600A6
:101034006420E100020036000968A30001003A00C0
:101044000880BE0002C0A8004F0678004F05BE000D
:101054004F04BE0000000600F0FF2F00F1FF270040
:10106400F9FF370081002000618055000B003D002E
:101074000B00200061FE2F000100E1001D00340080
:1010840082817100610164008904D1000884D30065
:101094000000E800FAFF3A007100200061006400DB
:1010A4000300700002006000090032006104440083
:1010B400E0844C000988A500050032008B05E80097
:1010C4006808E10002003A008904D1000884D300D2
:1010D400F20F20000258E10005003D00C75DDD006D
:1010E400F907B20089807500080088000000060036
:1010F4000BF827001B00880000000500C70ADE006B
:10110400F107B200F50FB20008003200E1CF42004F
:101114000200320002E0A80024000500810F7000E4
:10112400010032000408050044000500810F70002E
:1011340002003A00140005008502E90000004000A6
:1011440081C04800FCFF3B0002E0A8002400050029
:081154000080FA000000060013
:1017B0000000FA0002000700EE0C04000000000028
:1017C000889FBE008A9FBE008C1F780030000700F3
:1017D0003700330003866C006450E10024003200BF
:1017E0006420E100270032006150E1002200320055
:1017F0006120E100210032008B854200EB07B1003F
:101800000134B800003AB8000804420089844A0054
:10181000013AB8000030B8008880400009014A0051
:1018200004003300000040008180480002014900AC
:101830008B05E900C909DD00830170000100320059
:1018400013002000C814DE004814DD004709DE0044
:101850001200B200C808DE000884700024000700EF
:1018600001F0A1000CF0A70003E0A8001900370068
:101870006120E1001B0032000881BE000280BE0032
:10188000F7FF37006150E100FCFF3A001500370018
:101890000084BE003C0007000083BE000485BE003B
:1018A0000280BE0038000700844F7500000006006B
:1018B0000280BE006450E100050036006420E100B3
:1018C000020036000968A30001003A000880BE004B
:1018D00002C0A8004F0678004F05BE004F04BE00AE
:1018E00000000600F0FF2F00F1FF2700F9FF37008E
:1018F00081002000618055000B003D000B0020009E
:1019000061FE2F000100E1001D00340082817100A2
:10191000610164008904D1000884D3000000E8005C
:10192000FAFF3A00710020006100640003007000BB
:10193000020060000900320061044400E0844C00B1
:101940000988A500050032008B05E8006808E10061
:1019500002003A008904D1000884D300F20F20006D
:101960000258E10005003D00C75DDD00F907B20047
:101970008980750008008800000006000BF8270029
:101980001B00880000000500C70ADE00F107B20056
:10199000F50FB20008003200E1CF42000200320031
:1019A00002E0A80024000500810F70000100320051
:1019B0000408050044000500810F700002003A0091
:1019C000140005008502E9000000400081C04800C5
:1019D000FCFF3B0002E0A800240005000080FA00A4
:0419E00000000600FD
:101F8C000200FA008A1F78004AC0B30096FD0700D1
:101F9C00004798005AC0B30093FD07000080FB0077
:101FAC0063006000C800DD00600047001080FB008B
:101FBC00008070008000EB0030FD07000200200064
:101FCC0083DC2300F7FD07004F0578000080FA0042
:041FDC0000000600FB
:101FE0000600FA008A1F78008B1F7800000020008E
:101FF0004047980000002000504798000A079800CA
:102000001B0798000E0190009E019000F0FF2F002A
:10201000F1FF2F000010E1000198E10005003A00F7
:102020002B8420000C057800D2FD070030C0B300DF
:10203000FE00370016C0B300600047006300400098
:102040001040780000E0AE000D003700600047004F
:10205000630140009280FB000008200000806800BF
:1020600000497800E1404300D0C2B300004E780040
:102070006100460000067800014278000100370048
:10208000064278000E0090009E0090006000E10083
:102090006088E10005003A000B8420000C05780000
:1020A000B4FD07000020EF00E00037000E019000B3
:1020B0009E0190000000200001F827000010E100C0
:1020C0000198E10005003A006B8520000C057800BE
:1020D000A8FD070004407800D40037008C1F78006A
:1020E0008A9FBE000200200003F823000E0090002B
:1020F0009E0090009AFD07000000E0000060EF00E5
:1021000001003D000060EC004F05BE004F06780066
:102110000040E2000F0032008C1F78008A9FBE0052
:102120000E0090009E009000020020000312240088
:102130009FFD07004F05BE004F067800000798007E
:1021400011079800DE4090006500470061C850000C
:10215000E2FF37008C1F78008A9FBE00020020003B
:10216000031224000E0090009E009000C1FC0700A6
:102170000000E0000060EF00010035000060EC00AE
:102180004F05BE004F0678000040E2000F0032000D
:102190008C1F78008A9FBE000E0090009E00900069
:1021A000D2CC2C00C3DC230081FD07004F05BE000C
:1021B0004F0678000007980011079800DE40900055
:1021C0006500470061C84000E2FF3700600147003A
:1021D0003200D000A280D2000007980011079800BA
:1021E000600047006300400090407800F0C7B300F3
:1021F00000C1500060004700E300400010C0B30081
:10220000804878008281FB00600147001200BE0018
:102210008301E900030035000000D0008180D20076
:10222000FBFF370000079800110798006000470087
:1022300063004000010320001080FB00008040008C
:10224000004E780061004600000678005E40900075
:102250006104E100040035005E4090006604E10086
:1022600001003C0006003700E0C2B300004E7800D9
:10227000610046000006780010C0B3004047980097
:1022800065C0B300602CE1002C0032006000470004
:10229000E30040000020EF00804878006000470025
:1022A000B001D0002082D2008301D0000482D2008D
:1022B0006001470032804100A2004A0000079800F8
:1022C00011079800600147003200D000A280D200C0
:1022D0000007980011079800600047006300400065
:1022E000010320001080FB0000804000004E7800B9
:1022F00061004600000678004E4090006004E10056
:102300000B003A005E4090000060ED0050479800DE
:102310006004E10006003A00E0C2B300004E78001D
:10232000610046000006780010C0B30040479800E6
:1023300061C0520080427800D2FF3700F0FF2F00CA
:10234000000046009040780000C3B300000CE1009C
:1023500003003A006100560000067800F7FF3700DE
:10236000F0FF2F000000460090407800E0C2B3006C
:10237000000CE10002003A006100560000067800FF
:102380005E4090006004E1002500320050C6B300BA
:10239000004E780061004600000678005E40900024
:1023A0006004E10007003D00D0C2B300004E780099
:1023B0006100460000067800DE409000650047009E
:1023C00060C81000DE4190005E4090006904E100AA
:1023D0000A0036000380FB00A20020001100090063
:1023E0000200D800800078000003200001004000B7
:1023F000004E780061004600000678000380FB0074
:10240000A2002000110009000200D80000032000F3
:1024100001004000004E7800610046000006780090
:102420000020EF00004E78000020EF00CF0578007C
:0C2430004F0578000080FA000000060054
:101774000000FA000A00780000017800E10140004E
:101784008B0078006180450080057800114978005D
:101794001204E0000200320003007800F6FF370074
:0C17A4000A0078000080FA000000060037
:101760000000FA00140020008DFD07000080FA0040
:04177000000006006F
:100DA0000000FA00020007003E07040000000000F7
:100DB000841F7800140007004F00780011003300F2
:100DC000F0FF2F00838F6C0006003B0004056500D8
:100DD0000A00A7000800370009F0A6001000200054
:100DE00008003700820F5400838F5C000300390035
:100DF0001000200001003E000000200009F0A700C4
:100E00000000EA00000006000084BE0006000700A3
:100E10000083BE000485BE000280BE000200070001
:100E2000844F750000000600C70ADE00F107B2001B
:100E3000F50FB20008003200E1CF4200020032009C
:100E400002E0A80024000500810F700001003200BC
:100E50000408050044000500810F700002003A00FC
:100E6000140005008502E9000000400081C0480030
:100E7000FCFF3B0002E0A800240005000080FA000F
:040E80000000060068
:101474000000FA00F4FF2F0048FE07000080FA0085
:04148400000006005E
:1024800058012000B78525000E20ED00FEFF3A0020
:0C2490001020ED00FCFF3A0000000600E8
:1028B0000A8020000B002000480009000B1D780052
:0428C000000006000E
:1028C40001802000000028002C000900B0187800C6
:0428D40000000600FA
:020000040001F9
:080000000000000000000000F8
:080008000000000000000000F0
:10001000202D00002D2D00002053000079730000DA
:10002000746500006D200000496E000069740000D6
:10003000202D00002D2D0000002D00002D2D000092
:100040002D2D00002D2D00002D2D00002D2D000048
:100050002D2D00002D2D00002D2D00002D2D000038
:100060002D2D000000200000487500006D69000083
:100070006469000074790000203A0000200000004C
:04008000300000004C
:080084004E6100004E00000077
:10008C0020540000656D0000706500007261000076
:10009C007475000072650000203A0000200000001A
:0800AC00494E0000460000006F
:1000B400040E0000FA0D0000F00D0000100F000007
:1000C4007E0F0000920F0000600F0000740F00000C
:1000D4006A0F0000880F00002E0F0000240F00009C
:1000E400FFFF0000FFFF0000FFFF0000FFFF000014
:1000F400FFFF0000FFFF0000FFFF0000FFFF000004
:10010400FFFF0000FFFF0000FFFF0000FFFF0000F3
:10011400E0040000AE080000D80900005404000008
:040124005E03000076
:08012800A086000001000000A8
:0200000401F009
:20000000CF000000CF00000007000000A2000000850000007F000000E7000000C1000000ED
:00000001FF
