:020000040800F2
:10000000FCFF0120E52400008D2400008D24000069
:100010008D2400008D2400008D2400008D2400001C
:100020008D2400008D2400008D2400008D2400000C
:100030008D2400008D2400008D2400008D240000FC
:100040008D2400008D2400008D2400008D240000EC
:100050008D2400008D2400008D2400008D240000DC
:100060008D2400008D2400008D2400008D240000CC
:100070008D2400008D2400008D2400008D240000BC
:100080008D2400008D2400008D2400008D240000AC
:100090008D2400008D2400008D2400008D2400009C
:1000A0008D2400008D2400008D2400008D2400008C
:1000B0008D2400008D2400008D2400008D2400007C
:1000C0008D2400008D2400008D2400008D2400006C
:1000D0008D2400008D2400008D2400008D2400005C
:1000E0008D2400008D2400008D2400008D2400004C
:1000F0008D2400008D2400008D2400008D2400003C
:100100008D2400008D2400008D2400008D2400002B
:100110008D2400008D2400008D2400008D2400001B
:100120008D2400008D2400008D2400008D2400000B
:100130008D2400008D2400008D2400008D240000FB
:100140008D2400008D2400008D2400008D240000EB
:100150008D2400008D2400008D2400008D240000DB
:100160008D2400008D2400008D2400008D240000CB
:100170008D2400008D2400008D2400008D240000BB
:100180008D2400008D24000081B000F214010A6863
:1001900000F218010968090442EA0101084601B0A9
:1001A0007047FFFF83B0CDF800E0044604F0FF0382
:1001B0001A09104603F00F029446220A02F00F02B9
:1001C00093461AE02D4A029229E02D4A029226E037
:1001D0002C4A029223E02C4A029220E02B4A0292FF
:1001E0001DE02B4A02921AE02A4A029217E02A4A9C
:1001F000029214E0294A029211E00028E2D001287C
:10020000E3D00228E4D00328E5D00428E6D005286E
:10021000E7D00628E8D00728E9D00828EAD001224C
:1002200012B202FA0CF2ADF8042002980A46BDF8A8
:10023000041000F095FE029A02F22001BCF1070FB3
:1002400008D90A1D1046ACF1080211460191014679
:10025000019800E0604683004FF00F029A40D343BC
:100260000A681A400A6082000BFA02F30A681A430D
:100270000A60DDF800E003B0704700BF00000240F4
:100280000004024000080240000C0240001002403E
:100290000014024000180240001C024000200240EE
:1002A00081B000F218010A68C2F3400181F0010137
:1002B000C9B2C8B201B0704701480068704700BFBA
:1002C0009400002081B01E4900EA01010846002286
:1002D00012E001202CE002202AE0042028E008207F
:1002E00026E0102024E0202022E0402020E0802092
:1002F0001EE040F200101BE012498842E9D012498A
:100300008842E8D011498842E7D011498842E6D0B6
:1003100010498842E5D010498842E4D00F4988420C
:10032000E3D00F498842E2D00E498842E1D010461E
:100330000D49096841EA00020B490A6001B07047A3
:1003400000FCFFFF000002400004024000080240E1
:10035000000C02400010024000140240001802404D
:10036000001C0240002002403038024082B0CDF82C
:1003700000E0034619460191FFF79EFF40F2E83185
:1003800000FB01F201990A601749096801F0F001C8
:100390000A09164989180878C0B21A1D1968C1409F
:1003A00011601149096801F4E0518A0A0F4989185E
:1003B0000878C0B203F20802191D0968C140116033
:1003C0000949096801F460414A0B0849891809780C
:1003D000C8B203F20C02191D0968C1401160DDF8B2
:1003E00000E002B0704700BF083802406C000020F7
:1003F00083B0CDF800E00024A10041180968B1F1F4
:10040000FF3F14D000F23401A300C91809680A465E
:10041000C11809680190ADF8084008461146FFF779
:10042000C1FEBDF808400198641CA4B2E4E7DDF801
:1004300000E003B07047FFFF82B0CDF800E0CFB21C
:1004400001469846029B4FF000064FF00005BF4C56
:10045000A14207D1BE4CD4F80090BE4C2568BE4CDA
:10046000256016E0BD4CA14207D1BD4C2068BD4CB3
:100470002568B94C256081460BE0BB4CA14206D1F2
:10048000BA4C2068BA4C2568B34C256000E0284679
:100490008146B84CC4F80090F9E101F210057C00E7
:1004A000A4B244F00104A4B22C60019616464F4653
:1004B000019A01F214042568C5F3400464B9AD4CF7
:1004C000246844B127B90320A34C2468A047E7E17E
:1004D000781E0746FFE7ECE700250C6865F38A24E1
:1004E0000C6001F21404206800BF01F218042468B3
:1004F000240440EA04042046012B05D101250C68A0
:1005000065F349240C6004E001250C6865F30824B8
:100510000C60984C25689146984637460E46964999
:10052000304600F0C7F968B9924C24684CB125B93F
:100530000320894C2468A047B2E16C1E2046054682
:10054000FFE7ECE707EB090506F2100424682C70BE
:10055000B8F1010F13D1874C216830460568C5F307
:1005600040245CB9834C24683CB121B903207A4C07
:100570002468A04794E1491EFFE7EFE712E07D4CB5
:10058000216830460568C5F300245CB9794C2468BD
:100590003CB121B90320704C2468A04780E1491E7A
:1005A000FFE7EFE77CE101250C6865F38A240C6026
:1005B00001250C6865F3CB240C6001F210057C006A
:1005C000A4B244F00104A4B22C604F4601F214041A
:1005D0002568C5F3400464B9664C246844B127B962
:1005E00003205D4C2468A0475AE1781E0746FFE7C8
:1005F000ECE701F21404206800BF01F2180424683B
:100600002404204300250C6865F38A240C60594CAF
:10061000276801F214042568C5F3800464B9554CB9
:10062000246844B127B903204B4C2468A04737E124
:10063000781E0746FFE7ECE7012B05D101250C6882
:1006400065F349240C6004E001250C6865F3082477
:100650000C60951901F2100424682C70741C151993
:1006600001F2100424682C70012B14D1414C226833
:100670000D68C5F3402464B93E4C246844B122B9E6
:100680000320354C2468A0470AE1501E0246FFE7CC
:10069000EEE7084613E0374C22680D68C5F30024E6
:1006A00064B9344C246844B122B903202A4C24682C
:1006B000A047F5E0501E0246FFE7EEE7084600259A
:1006C000046865F3CB240460EAE001250C6865F357
:1006D0008A240C6001F210057C00A4B244F00104ED
:1006E000A4B22C604646C846894617461D46234993
:1006F000484600F0DFF878B91E4C24685CB1B8F1C8
:10070000000F04D10320144C2468A047C8E0A8F1CE
:1007100001008046FFE7EAE70021A8464A46B146C5
:100720003B46A9F10304A1423DD2124C25688A46FA
:1007300017461E461049384600F0BCF838BB0D4C31
:1007400024681CB3FDB90320034C19E00054004099
:100750005C0000209C000020980000200058004011
:1007600060000020A0000020005C00406400002029
:10077000A4000020680000204000030002000300E5
:100780002468A0478CE0681E0546FFE7D2E706EB29
:100790000A0507F2100424682C700AF101042146AE
:1007A00033463A46BDE7404C276801930B46164650
:1007B0004246019906F214042568C5F3800464B921
:1007C000394C246844B127B90320384C2468A04729
:1007D00066E0781E0746FFE7ECE70025346865F31E
:1007E0008A243460CD1806F2100424682C70581C3A
:1007F0002D4C23681746024606F214042568C5F3FB
:10080000800464B9284C246844B123B90320274CE0
:100810002468A04744E0581E0346FFE7ECE7012F99
:1008200007D10125346865F3492434601046324607
:1008300021E00125346865F3082434601A4CD4F8AB
:10084000008017460D461A49304600F033F878B953
:10085000154C24685CB1B8F1000F04D10320134C8F
:100860002468A0471CE0A8F101008046FFE7EAE702
:100870002946324638460D1802F2100424682C70BE
:10088000441C0D1902F2100424682C7008E0B8F121
:10089000010F3FF402AEB8F1020F3FF484AE14E74B
:1008A000DDF800E002B070476800002098000020EA
:1008B0000100030081B0CDF800E00B46FFF764FCB7
:1008C00000EA03029A4240F2000200D10122D0B2B3
:1008D000DDF800E001B0704781B0CDF800E04FF0E6
:1008E00000021F49884207D11E490B681E490A6849
:1008F0001E490A601C4617E01D49884207D11D4960
:100900000B681D490A6819490A601C460CE01B491E
:10091000884207D11A490B681A490A6813490A60C4
:10092000194600E011460C4617490C60034618466C
:10093000FFF7B6FC70B91449096851B12CB905200C
:100940000A4C2468A047002005E0611E08460446C2
:10095000FFE7ECE70120DDF800E001B0704700BFE1
:10096000005400405C0000209C0000209800002003
:100970000058004060000020A0000020005C004003
:1009800064000020A40000206800002082B0CDF8A0
:1009900000E0029E4FF000055C4CA04206D15C4C8A
:1009A00027685C4C25685C4C256016E05B4CA042D7
:1009B00006D15B4C27685B4C2568574C25600CE0E2
:1009C000594CA04207D1594C2768594C2568524CC4
:1009D00025603C4600E02C462746564C276000F236
:1009E00010054C00A4B22C60B94607469046354627
:1009F0001E4651493846FFF75DFF88B94D4C2468C3
:100A00006CB1B9F1000F06D10420434C2468A04713
:100A10004FF6FF7076E0A9F101008146FFE7E8E7B5
:100A20000020019729463746019E7C1EA04226D20F
:100A300006F2100508EB000424782C603D4CD4F835
:100A4000009082460D463D493046FFF733FF88B996
:100A5000384C24686CB1B9F1000F06D104202E4C3B
:100A60002468A0474FF6FF704CE0A9F101008146D1
:100A7000FFE7E8E70AF1010420462946D5E706F238
:100A8000100508EB000424782C602A4C27680D46DA
:100A90002B493046FFF70EFF70B9264C246854B13D
:100AA00037B904201C4C2468A0474FF6FF7029E09A
:100AB000781E0746FFE7EBE7012D05D101253468D5
:100AC00065F3492434601CE00125346865F308248B
:100AD0003460184C276835461A492846FFF7EAFE65
:100AE00078B9144C24685CB137B904200A4C2468E6
:100AF000A0474FF6FF7005E07C1E20460746FFE743
:100B0000EAE70020DDF800E002B070470054004042
:100B10005C0000209C00002098000020005800404D
:100B200060000020A0000020005C00406400002065
:100B3000A400002068000020820007008000070059
:100B4000840007000100030083B0CDF800E00346F5
:100B50004FF000002B498B4206D12B490C682B49E2
:100B60000A682B490A6015E02A498B4207D12A49B5
:100B700008682A490A6826490A6004460AE02849A2
:100B80008B4206D12749086827490A6820490A602C
:100B9000FFE7044625490C60019402931846FFF7CD
:100BA0009BFE029B019C10B94FF6FF7025E00122CD
:100BB000196862F30821196003F214010A68C2F38C
:100BC000402111B14FF6FF7017E025461C46184929
:100BD0002046FFF76FFE78B91449096859B135B955
:100BE00006200B4C2468A0474FF6FF7005E0691EF5
:100BF00008460546FFE7EAE70020DDF800E003B01D
:100C0000704700BF005400405C0000209C000020A2
:100C1000980000200058004060000020A000002044
:100C2000005C004064000020A40000206800002058
:100C30000100030081B00268C2F3401101B9FAE774
:100C4000011D096888B201B07047FFFF81B00168DB
:100C5000C1F3401001B0704781B00168C1F380104A
:100C600001B070478BB0CDF800E09AB2BDF82C30DF
:100C70000C9E06ACADF80430ADF80820039104904A
:100C80002046FFF773FB04980399BDF80820BDF8D0
:100C90000430714CA04212D101256DB26F4C256019
:100CA0006F4D704C2560704D704C2560704D714CCF
:100CB0002560714D714C2560099C05946CE0704C69
:100CC000A04212D101256DB26E4C25606E4D654C6F
:100CD00025606E4D654C25606D4D664C25606D4DF3
:100CE000664C2560089C059456E06B4CA04212D1DE
:100CF00001256DB2694C2560694D5A4C2560694DDE
:100D00005A4C2560684D5B4C2560684D5B4C2560F6
:100D1000089C059440E0664CA04212D101256DB2BA
:100D2000644C2560644D4F4C2560644D4F4C2560EC
:100D3000634D504C2560634D504C2560089C0594D4
:100D40002AE0614CA04212D101256DB25F4C2560B2
:100D50005F4D444C25605F4D444C25605E4D454CD5
:100D600025605E4D454C2560089C059414E05C4C64
:100D7000A04211D101256DB25A4C25605A4D394C13
:100D800025605A4D394C2560594D3A4C2560594DD6
:100D90003A4C2560099C0594ADF80430ADF8082064
:100DA000039104903046FFF723FB04980399BDF8A4
:100DB0000820BDF8043000F2100500242C6000F279
:100DC00010052C681C432C6000F20C0500242C60DC
:100DD0001AB142F4806292B2FFE700F20C052C686F
:100DE00014432C6000F20C060125346865F34D3481
:100DF000346000F20C060125346865F3C3043460E6
:100E000000F20C060125346865F38204346000F2B8
:100E1000140500242C60059D192465438C00B5FB46
:100E2000F4F76424B7FBF4F42601350964246C4319
:100E30003C1B240104F232056424B5FBF4F404F0F5
:100E40000F0446EA040400F20805A4B22C60DDF8A1
:100E500000E00BB0704700BF00100140900847420F
:100E600021170000B800002009150000BC00002078
:100E7000D9140000C0000020F1140000C4000020BC
:100E800000440040440847426D170000C1130000B1
:100E9000A913000091130000004800404808474291
:100EA000B5160000D9130000211400003914000009
:100EB000004C00404C08474299160000F113000016
:100EC0000914000039150000005000405008474246
:100ED000D1160000ED1600003D1700005517000068
:100EE000001401409408474205170000A9150000AE
:100EF000911500007915000081B0ADF80010014691
:100F0000BDF800000B68C3F3C01202B9FAE70A1D6E
:100F1000106001B07047FFFF81B0CDF800E008B469
:100F200013460A46C1B20448FFF786FA01B0DDF85D
:100F300000E001B0704700BF0058004081B0CDF81C
:100F400000E008B413460A46C1B20448FFF774FA39
:100F500001B0DDF800E001B0704700BF0054004070
:100F600084B0CDF800E08DB21646864B00EA03034C
:100F70001F461846FFF7A6F9B5F1FF0F20D13C68D0
:100F8000814B04EA03031846804B9E4214D145F27C
:100F9000555340EA03033B603D1D2C686FF0FF038F
:100FA00004EA03032B6007F208052C684FF6FF7371
:100FB00044EA03032B60E1E0422E01D13860DDE01A
:100FC000734B9D4213D1714B9E420BD14FF0553361
:100FD0003B603C1D0023236007F208044FF0FF3301
:100FE0002360CBE0422E02D100233B60C6E006F036
:100FF00001030BB103200AE006F008030BB1022045
:1010000005E006F004030BB1012000E00020614B75
:1010100006EA03030BB103210AE006F480630BB177
:10102000022105E006F400730BB1012100E000216C
:1010300006F020030BB1012200E0002206F48073C9
:101040000BB1022305E006F080030BB1012300E0A1
:10105000002340F2000A01921FFA85F9B0460646C5
:1010600018460A460199BAF1100F80F087804FF0B8
:10107000010303FA0AF409EA0403A34240F07B8067
:101080004FEA4A044FF00303A340DC433B6823408C
:101090003B604FEA4A0306FA03F43B6823433B6094
:1010A00008F00C033BB307F208054FEA4A044FF07F
:1010B0000303A340DC432B6823402B6007F20805A1
:1010C0004FEA4A0302FA03F42B6823432B603D1DC9
:1010D0001FFA8AF44FF00103A340DC432B6823403E
:1010E0002B603D1D1FFA8AF48BB203FA04F4A4B2FC
:1010F0002B6823432B6007F20C051FFA8AF35C0070
:10110000A4B24FF00303A340DC432B6823402B60C1
:1011100007F20C054FEA4A0300FA03F42B68234355
:101120002B6008F0080333B308F470031B0D8DF82F
:101130000C30BAF1070F05D907F224030293AAF184
:10114000080503E007F2200302935546AC004FF078
:101150000F03A340DC43029B1B6803EA0404029BC9
:101160001C609DF80C40AB009C40029B1B6843EA4E
:101170000404029B1C600AF1010A74E7DDF800E038
:1011800004B0704700FCFFFF0000FFFF14000800E0
:10119000FFFF00000008080088B0CDF800E00E4610
:1011A0005E4B98420DD1012464B25D4B1C605D4CD6
:1011B0005D4B1C605D4C5E4B1C605E4C5E4B1C606E
:1011C00020E05E4B98420DD1012464B25C4B1C6060
:1011D0005C4C554B1C605C4C554B1C605B4C564B3F
:1011E0001C600FE05A4B98420CD1012464B2594B59
:1011F0001C60594C4C4B1C60584C4D4B1C60584C5F
:101200004D4B1C60019602901046FFF7F1F80298D2
:10121000019E031D1B689CB26FF03F0304EA0303A9
:101220009DB203AB01901846FFF7A0F80198059F07
:10123000059C4C4BB4FBF3F399B29BB245EA030413
:10124000A4B2031D1C600024036864F30003036060
:101250000022454B9E4212D87300B7FBF3F4A4B2B0
:10126000042C02D204231C46FFE742EA04039AB28C
:1012700000F220044B1C9BB2236091B23FE0032399
:1012800006FB03F4B7FBF4F31FFA83F8192306FBFC
:1012900003F5B7FBF5F31FFA83F908FB04F409FB28
:1012A00005F33C1BFB1A9C4205D203237343B7FB97
:1012B000F3F4A4B206E019237343B7FBF3F4A4B22A
:1012C00044F4804440F6FF7304EA030313B944F086
:1012D0000104FFE744F400439BB21A4392B200F2C8
:1012E000200540F22C1301FB03F4A4B240F2E833D2
:1012F000B4FBF3F39BB25B1C9BB22B6091B200F288
:101300001C031960002303600124036864F30003D5
:101310000360DDF800E008B0704700BF00540040F3
:10132000540847429D140000A80000203D0F000013
:10133000AC00002029160000B0000020005800403A
:10134000580847426D140000190F0000E91500000D
:10135000005C00405C084742851400006D130000EB
:101360004D16000040420F00A086010081B0CDF86C
:1013700000E008B413460A46C1B20448FFF75CF81F
:1013800001B0DDF800E001B0704700BF005C004034
:1013900081B0CDF800E00348FFF75EFCDDF800E027
:1013A00001B070470044004081B0CDF800E0034830
:1013B000FFF74CFCDDF800E001B07047004400404E
:1013C00081B0CDF800E00348FFF734FCDDF800E021
:1013D00001B070470044004081B0CDF800E0034800
:1013E000FFF728FCDDF800E001B07047004800403E
:1013F00081B0CDF800E00348FFF71CFCDDF800E009
:1014000001B07047004C004081B0CDF800E00348C7
:10141000FFF71CFCDDF800E001B07047004C004015
:1014200081B0CDF800E00348FFF710FCDDF800E0E4
:1014300001B070470048004081B0CDF800E003489B
:10144000FFF70AFCDDF800E001B0704700480040FB
:1014500081B0CDF800E0044A89B2FFF781FDDDF8E4
:1014600000E001B0704700BF1400080081B0CDF863
:1014700000E00348FFF768FBDDF800E001B07047CB
:101480000058004081B0CDF800E00348FFF75CFB56
:10149000DDF800E001B07047005C004081B0CDF89D
:1014A00000E00348FFF750FBDDF800E001B07047B3
:1014B0000054004082B0CDF800E040F20004ADF8E6
:1014C0000440044C2468A047BDF90400DDF800E0A6
:1014D00002B07047D400002081B0CDF800E003488E
:1014E000FFF7B4FBDDF800E001B0704700100140E9
:1014F00081B0CDF800E00348FFF7AEFBDDF800E077
:1015000001B070470010014081B0CDF800E0034801
:10151000FFF790FBDDF800E001B0704700100140DC
:1015200081B0CDF800E04FF0420289B2FFF718FD1C
:10153000DDF800E001B0704781B0CDF800E003486D
:10154000FFF78AFBDDF800E001B07047004C004077
:1015500081B0CDF800E0019D2C4610B408B493B2E0
:101560008AB201460348FFF77DFB02B0DDF800E0D8
:1015700001B070470044004081B0CDF800E003485E
:10158000FFF76AFBDDF800E001B07047001401408E
:1015900081B0CDF800E00348FFF758FBDDF800E02C
:1015A00001B070470014014081B0CDF800E003485D
:1015B000FFF740FBDDF800E001B070470014014088
:1015C00081B0CDF800E0019D2C4610B408B493B270
:1015D0008AB201460348FFF745FB02B0DDF800E0A0
:1015E00001B070470010014081B0CDF800E008B4B0
:1015F00013460A46C1B20448FFF7C8F901B0DDF846
:1016000000E001B0704700BF0058004081B0CDF845
:1016100000E00A4601460348FFF7BEFDDDF800E0A2
:1016200001B070470054004081B0CDF800E008B42C
:1016300013460A46C1B20448FFF7A8F901B0DDF825
:1016400000E001B0704700BF0054004081B0CDF809
:1016500000E008B413460A46C1B20448FFF796F901
:1016600001B0DDF800E001B0704700BF005C004051
:1016700081B0CDF800E0019D2C4610B408B493B2BF
:101680008AB201460348FFF7EDFA02B0DDF800E048
:1016900001B070470048004081B0CDF800E081B251
:1016A0000348FFF729FCDDF800E001B0704700BFF8
:1016B000004C004081B0CDF800E081B20348FFF754
:1016C0001BFCDDF800E001B0704700BF004800409F
:1016D00081B0CDF800E081B20348FFF70DFCDDF8E2
:1016E00000E001B0704700BF0050004081B0CDF86D
:1016F00000E00348FFF79EFADDF800E001B0704714
:101700000050004081B0CDF800E081B20348FFF7FF
:10171000F3FBDDF800E001B0704700BF00140140AA
:1017200081B0CDF800E081B20348FFF7E5FBDDF8BA
:1017300000E001B0704700BF0010014081B0CDF85B
:1017400000E00348FFF782FADDF800E001B07047DF
:101750000050004081B0CDF800E00348FFF77CFA6C
:10176000DDF800E001B070470050004081B0CDF8D6
:1017700000E081B20348FFF7BFFBDDF800E001B0F5
:10178000704700BF0044004082B0CDF800E040F256
:101790000004ADF80440064C2468A047BDF90410CD
:1017A00041EA000000B2DDF800E002B0704700BF7F
:1017B000C800002001490860704700BF9C82404279
:1017C00001490860704700BF9882404282B0CDF85E
:1017D00000E001A90870FFF7D7FF01AA0D490978B9
:1017E0000123C8B21146012200F016F8FFF7CCFF22
:1017F0000DF10502074909780123C8B211460122FB
:10180000FFF758FE0DF105010978C8B2DDF800E0D8
:1018100002B070471700002082B0CDF800E040F21F
:101820000004ADF80440054C2468A047BDF904400D
:10183000044320B2DDF800E002B07047D000002081
:1018400081B00091014600980B461C465A1C154673
:101850000346421C10461A78227022780AB12B46A1
:10186000F3E7084601B0704701490860704700BFC0
:101870009482414200F208010A6801490A607047F7
:10188000CC00002001490860704700BF9002404230
:1018900081B0CDF800E0A9E0012905D140F21001A6
:1018A0006548FFF73DFE04E040F210016248FFF793
:1018B000CFFDBBE0012905D140F204015F48FFF7ED
:1018C0002FFE04E040F204015C48FFF7C1FDADE0EB
:1018D000012905D142F200015948FFF721FE04E039
:1018E00042F200015648FFF7B3FD9FE0012905D100
:1018F00040F200415148FFF713FE04E040F200417E
:101900004E48FFF7A5FD91E0012905D140F6000101
:101910004A48FFF705FE04E040F600014748FFF79C
:1019200097FD83E0012905D141F200014348FFF70B
:10193000F7FD04E041F200014048FFF789FD75E042
:10194000012905D140F201013B48FFF7E9FD04E020
:1019500040F201013848FFF77BFD67E0012905D11E
:1019600040F200413648FFF7DBFD04E040F2004161
:101970003348FFF76DFD59E0012905D140F2002100
:101980002F48FFF7CDFD04E040F200212C48FFF77F
:101990005FFD4BE0012905D140F200112848FFF717
:1019A000BFFD04E040F200112548FFF751FD3DE086
:1019B000012905D140F240012248FFF7B1FD04E0C2
:1019C00040F240011F48FFF743FD2FE0012905D1F8
:1019D00040F280011B48FFF7A3FD04E040F28001C4
:1019E0001848FFF735FD21E0012020E000283FF4F2
:1019F00053AF01283FF45EAF02283FF469AF0328DC
:101A00003FF474AF04283FF47FAF05283FF48AAF5A
:101A100006283FF495AF0728A0D00828ACD00928A5
:101A2000B8D00A28C4D00B28D0D0DDE70020DDF8DC
:101A300000E001B0704700BF000002400008024013
:101A4000000C024000040240026806490A60011DC1
:101A50000A6805490A6000F208010A6803490A6039
:101A6000704700BFC8000020D0000020D400002034
:101A700001490860704700BFA8024142014908605F
:101A8000704700BFAC02414201490860704700BF87
:101A90008802414201490860704700BFB482414258
:101AA00081B0CDF800E0094902B440F2000340F2F1
:101AB000000240F20001FFF7DBFD01B0044A0549D6
:101AC0000A600020DDF800E001B070474029000006
:101AD000B51600009000002081B0CDF800E0094963
:101AE00002B440F2000340F2000240F20001FFF7AE
:101AF0002FFD01B0044A05490A600020DDF800E02E
:101B000001B07047D42800006D170000900000203D
:101B100081B0CDF800E0016808460449FFF776FD82
:101B20000020DDF800E001B0704700BF6828000029
:101B300081B0CDF800E0016808460449FFF766FD72
:101B40000020DDF800E001B0704700BF6828000009
:101B500081B0CDF800E0A9E0012905D140F22001D3
:101B60006548FFF7DDFC04E040F220016248FFF722
:101B70006FFCBBE0012905D140F208015F48FFF787
:101B8000CFFC04E040F208015C48FFF761FCADE0E7
:101B9000012905D144F200015948FFF7C1FC04E0D6
:101BA00044F200015648FFF753FC9FE0012905D19C
:101BB00040F200415148FFF7B3FC04E040F200411D
:101BC0004E48FFF745FC91E0012905D140F60001A0
:101BD0004A48FFF7A5FC04E040F600014748FFF73C
:101BE00037FC83E0012905D141F200014348FFF7AA
:101BF00097FC04E041F200014048FFF729FC75E042
:101C0000012905D141F200013D48FFF789FC04E0BC
:101C100041F200013A48FFF71BFC67E0012905D1BA
:101C200040F600013648FFF77BFC04E040F6000177
:101C30003348FFF70DFC59E0012905D140F240017E
:101C40002F48FFF76DFC04E040F240012C48FFF7FD
:101C5000FFFB4BE0012905D140F220012848FFF7A6
:101C60005FFC04E040F220012548FFF7F1FB3DE076
:101C7000012905D140F240012248FFF751FC04E060
:101C800040F240011F48FFF7E3FB2FE0012905D197
:101C900040F280011B48FFF743FC04E040F2800162
:101CA0001848FFF7D5FB21E0012020E000283FF491
:101CB00053AF01283FF45EAF02283FF469AF032819
:101CC0003FF474AF04283FF47FAF05283FF48AAF98
:101CD00006283FF495AF0728A0D00828ACD00928E3
:101CE000B8D00A28C4D00B28D0D0DDE70020DDF81A
:101CF00000E001B0704700BF000002400008024051
:101D0000000C02400004024081B0CDF800E00178F0
:101D1000CCB2A0B2034C2468A0470020DDF800E05C
:101D200001B070479000002081B0CDF800E0094973
:101D300002B440F2000340F2000240F20001FFF75B
:101D40003FFC01B0044A05490A600020DDF800E0CC
:101D500001B07047AC29000021170000900000205E
:101D600081B0CDF800E0094902B440F2000340F22E
:101D7000000240F20001FFF7EBFB01B0044A054905
:101D80000A600020DDF800E001B07047D4280000B0
:101D90006D1700009000002001490860704700BFE7
:101DA000B002414201490860704700BFA8024142A9
:101DB00001490860704700BFAC0241420149086018
:101DC000704700BF8C02414201490860704700BF64
:101DD000B882414201490860704700BFAC8241426D
:101DE00001490860704700BF98824142014908607C
:101DF000704700BFB002414201490860704700BF10
:101E0000B082414201490860704700BFA082414250
:101E100001490860704700BF98824042014908604C
:101E2000704700BFA482414201490860704700BF6B
:101E30008002404201490860704700BFA8824142C9
:101E400001490860704700BF9402404201490860A0
:101E5000704700BF9C82404281B0CDF800E05FFA3D
:101E600081FB5FFA82FC0FE05FFA8CF15FFA8BF086
:101E7000FFF70EFD0DE05FFA8CF15FFA8BF0FFF7D4
:101E800067FE06E0012004E00028EDD00128F2D032
:101E9000F8E7DDF800E001B07047FFFF82B0CDF851
:101EA00000E00420FFF792FC8DF804000520FFF706
:101EB0008DFC00F00300C0B2010289B29DF804005D
:101EC00041EA000080B200EE900AF8EE600A054890
:101ED00000EE100A20EE200AB0EE400ADDF800E025
:101EE00002B070470000C83D81B0CDF800E040F07E
:101EF0000101012000F038F9DDF800E001B0704781
:101F000083B0CDF800E00446002000235BB28DEDE5
:101F1000020A0299B1F1FF3F05D170492046FFF74F
:101F20008FFC0320D5E0012502A9C91C097801F026
:101F30008001C9B269B102A9CA1C117881F080017F
:101F40001170691CCAB22D212170641CD7B22646BB
:101F500001E02646EFB2029929B961493046FFF700
:101F60006FFC0020B5E00299B1F1FF4F05D15D494A
:101F70003046FFF765FCF8B2ABE08DF80430C3B231
:101F800034469DF90400DDED020AB7EE000AF4EED6
:101F9000C00AF1EE10FA0ADADDED020AB2EE040A26
:101FA00020EE800A8DED020A401E40B2EBE7DDED27
:101FB000020AB2EE040AF4EEC00AF1EE10FA0BDBEC
:101FC000DDED020A484900EE101A20EE800A8DED80
:101FD000020A401C40B2EAE702994900029102A9B4
:101FE000C91C09787F39CDB202A9CA1C0121117020
:101FF0000299A940029102A9C91C097830312170C7
:10200000621C012803DB062801DC154603E02E21B3
:102010001170551C0123062144B2C8B210B302A9A5
:10202000CA1C0021117002998A0002998918029134
:1020300002994900029102A9C91C0978303129701E
:102040006D1C63B9611E49B24AB221B92E212970B3
:102050006D1C012100E0D9B254B2CBB2FFE7401EA3
:10206000C0B2DBE72A4660B2511E0978302901D19F
:10207000521EF9E7511E09782E2901D1521EFFE7A1
:1020800018B365211170521C002806DA2D21117039
:10209000521C414248B243B200E043B2D8B2D9B276
:1020A000092907D90A21B0FBF1F1C9B23031117009
:1020B000531C00E013460A22B0FBF2F102FB1101AF
:1020C000C9B230311970581C00E01046002101706F
:1020D0000020DDF800E003B0704700BF530000208F
:1020E0001500002057000020CDCCCC3DA08601007B
:1020F00046F25317C0F251077F1EFDD100BF00BF4B
:1021000000BF00BF00BF00BF7047FFFF82B0CDF827
:1021100000E00720FFF75AFB8DF804000620FFF7C8
:1021200055FB9DF8041001F00701C9B2CAB21102B3
:1021300089B241EA000080B200EE900AF8EE600A2F
:10214000074800EE100A70EEC00A064800EE100ABA
:1021500020EE800AB0EE400ADDF800E002B07047E1
:1021600000804144CDCCCC3D82B0CDF800E001AB45
:1021700018705A1C11709A1C1170FFF705FB01AB07
:10218000054A127819460123D0B20322FFF744FB17
:10219000DDF800E002B0704717000020FFFFFFFFEE
:1021A00042F25337C0F208077F1EFDD100BF00BFC7
:1021B00000BF00BF00BF00BF7047FFFF81B0CDF878
:1021C00000E00446054B1A700846FFF73DFC204628
:1021D000FFF750FBDDF800E001B07047170000206A
:1021E00081B0CDF800E0034C2468A047DDF800E0A2
:1021F00001B07047CC00002081B0CDF800E009E0CC
:102200000846FFF785FC0AE00846FFF791FC06E068
:10221000012004E00028F3D00128F5D0F8E7DDF82C
:1022200000E001B07047FFFF81B0CDF800E011E0A1
:102230000846FFF735FC16E00846FFF74DFC12E0B4
:102240000846FFF771FD0EE00846FFF789FD0AE03A
:10225000012008E00028EBD00128EDD02028EFD0A5
:102260003028F1D0F4E7DDF800E001B07047FFFF5F
:1022700083B0CDF800E0024610460D228DF808200C
:102280000A228DF809201FE0FFF73EFD23E00278C7
:102290002AB10190FFF738FD0198401CF7E71AE0DA
:1022A00002782AB10190FFF72FFD0198401CF7E753
:1022B00002AA1046FFF728FD0DF109021046FFF7AC
:1022C00023FD08E0062007E00029DDD00129DED04B
:1022D0000229E5D0F6E70020DDF800E003B0704702
:1022E00081B00D48006840F001010B4801600021F9
:1022F0000A48016008480168094801400648016031
:10230000084909480160044801686FF480200140D1
:102310000148016001B070470038024008380240AF
:10232000FFFFF6FE103000240438024081B01CF894
:10233000019B0BF8019BBBEB0A0FF8D101B0704772
:1023400081B0CDF800E0082040F00400FFF7CCFD9C
:10235000FFF7DCFE164800ED000AFFF79FFD154869
:1023600000ED000A124810ED000A1348FFF7C8FDFF
:1023700012480121FFF77CFF02210F48FFF778FF89
:102380000C4810ED000A0C48FFF7BAFD0C4801217B
:10239000FFF76EFF02210848FFF76AFF0948022194
:1023A000FFF766FFFFF7A4FEDDF800E001B070471D
:1023B000180000201C0000207C00002020000020CD
:1023C000300000203D00002081B0CDF800E07F22E9
:1023D0000D490E48FFF7F2FE0120FFF701FF46F21C
:1023E0005317C0F2510700BF00BF7F1EFDD100BFD1
:1023F00000BF00BF00BF00210020FFF7B5FEDDF8E1
:1024000000E001B0704700BFF42A0000182A000065
:1024100081B04FF000094FF0000CBDEB0A0F04DC57
:10242000BDEB0B0F01DBD446EA464BF8049BBBEB3C
:102430000A0FFAD1BCEB0A0F05DDE246D9F800B06D
:102440000BF1040BF1E701B07047FFFF81B0CDF84D
:1024500000E0002202210020FFF7FEFC09480146AF
:102460000020FFF7C9FE42F280512020FFF7DCFE7A
:1024700005480221FFF7FCFEFFF792FEDDF800E0C1
:1024800001B07047EC2000000000002081B0FEE7A2
:1024900001B0704781B04EF68850CEF2000001685E
:1024A00041F47001016000BF00BF00BF00BFF1EE4A
:1024B000100A40F44000E1EE100A01B07047FFFF3F
:1024C00081B004490448016004490548016001B035
:1024D000704700BF803E0000940000200300000011
:1024E000B400002000F010F8FFF7D4FF00F064FB08
:1024F000FFF7E6FF00F004FBFFF7A8FFFFF764FF1C
:10250000FFF71EFFFCE7FEE782B0CDF800E0924A3D
:10251000924B934C93489449032840F03C80934855
:10252000814206D99248006840F005019048016058
:1025300030E09048814206D98D48006840F004019F
:102540008B48016026E08C48814206D988480068A3
:1025500040F00301864801601CE04EF66020814295
:1025600006D98348006840F002018148016011E00B
:1025700047F23050814206D97D48006840F00101A1
:102580007B48016006E07A4801686FF0070001406F
:10259000774801600CE1022840F04680774881428C
:1025A00006D97348006840F00601714801603AE0BE
:1025B0007048814206D96E48006840F005016C48B9
:1025C000016030E06E48814206D96948006840F0F9
:1025D00004016748016026E06A48814206D96448E0
:1025E000006840F00301624801601CE04BF6803057
:1025F000814206D95E48006840F002015C480160F3
:1026000011E045F6C050814206D95948006840F0B3
:1026100001015748016006E0554801686FF0070066
:10262000014053480160C3E0012840F05180514807
:10263000814206D94E48006840F007014C480160CD
:1026400045E05148814206D94948006840F00601FA
:10265000474801603BE04848814206D94448006849
:1026600040F005014248016031E04648814206D908
:102670003F48006840F004013D48016027E04DF20A
:10268000F020814206D93A48006840F003013848FA
:1026900001601CE048F6A040814206D93448006839
:1026A00040F002013248016011E044F25060814282
:1026B00006D92F48006840F001012D48016006E06E
:1026C0002B4801686FF007000140294801606FE066
:1026D000002840F06D802D48814206D924480068CA
:1026E00040F007012248016062E02548814206D996
:1026F0001F48006840F006011D48016058E024486A
:10270000814206D91A48006840F005011848016066
:102710004EE0B1F57A4F06D91548006840F0040143
:102720001348016044E04BF68030814206D91048DE
:10273000006840F003010E48016039E0B1F5FA4F3E
:1027400006D90B48006840F00201094801602FE0FB
:10275000B1F57A5F25D91DE081000000100000046A
:102760000000000003000000803E0000F04902006D
:10277000003C0240C0D40100905F010080320200A2
:102780000077010040190100E0A5010080B50100BB
:10279000803801002D48006840F001012B4801609D
:1027A00006E02A4801686FF00700014027480160F1
:1027B000012149B22648016026480160FFF790FDDB
:1027C0002548036025480460254802EA00012548A1
:1027D000016002F0010040B121462248006800F08B
:1027E0000200002800D1F8E700E0214602F4803022
:1027F00048B11C48006800F4003000B9F9E70192C4
:102800000A46019902E001911146019A01F0807097
:1028100070B11448006840F08071124801601146A0
:102820001048006800F0007000B9F9E70A46FFE7B9
:102830000A48006800F00C01900000F00C00814292
:1028400000D0F5E7DDF800E002B07047003C024040
:102850002080474224804742043802400838024022
:10286000FFFF0F00003802401604000017040000AC
:10287000FFFFFFFF0000000000000000000000005C
:102880000000000000000000000000000000000048
:102890000000000000000000000000002810000000
:1028A00028100000000000000000000000000000F0
:1028B0000000000000000000000000000000000018
:1028C0000000000000000000000000000000000008
:1028D000000000003507000036070000FFFFFFFF83
:1028E00000000000000000000000000000000000E8
:1028F00000000000000000000000000000000000D8
:102900000000000000000000181000001810000077
:1029100000000000000000000000000000000000B7
:1029200000000000000000000000000000000000A7
:102930000000000000000000000000000000000097
:102940003807000039070000FFFFFFFF000000000C
:102950000000000000000000000000000000000077
:102960000000000000000000000000000000000067
:102970000000000018100000181000000000000007
:102980000000000000000000000000000000000047
:102990000000000000000000000000000000000037
:1029A0000000000000000000000000000907000017
:1029B0000A070000FFFFFFFF00000000000000000A
:1029C0000000000000000000000000000000000007
:1029D00000000000000000000000000000000000F7
:1029E0001810000018100000000000000000000097
:1029F00000000000000000000000000000000000D7
:102A000000000000000000000000000000000000C6
:102A1000000000000000000085180000891A000076
:102A2000951A0000711A00007D1A0000991D00001F
:102A3000291E0000351E00001D1E0000051E00009E
:102A4000111E00004D1E0000FFFFFFFFFFFFFFFFF4
:102A5000FFFFFFFFFFFFFFFFFFFFFFFFFFFFFFFF86
:102A6000FFFFFFFFFFFFFFFFFFFFFFFFFFFFFFFF76
:102A7000FFFFFFFFFFFFFFFF00000000000000005E
:102A80002054656D7065726174757265203A20001E
:102A90002048756D6964697479203A20002D2D2DC8
:102AA0002D2D2D2D2D2D2D2D2D2D2D2D2D2D2D2D56
:102AB0002D2D004E614E00494E4600FF00000000E3
:102AC0000000000000000000000000000000000006
:102AD000010203040102030406070809202D2D2D1D
:102AE0002053797374656D20496E6974202D2D2DE6
:102AF000003000FF9D140000291600003D0F00006B
:102B000000B5DFF834B0DFF834A0DFF834C0FFF7E9
:102B10000DFCDFF830B0DFF830A0DFF830C0FFF791
:102B200005FCDFF82CB0DFF82CA0DFF82CC0FFF795
:102B3000FDFB00BD704700BF000000201700002013
:102B4000DC2A0000180000205B000020782A00002A
:102B50005C0000207C000020BC2A0000FFFFFFFF7B
:102B6000FFFFFFFFFFFFFFFFFFFFFFFFFFFFFFFF75
:102B7000FFFFFFFFFFFFFFFFFFFFFFFFFFFFFFFF65
:102B8000FFFFFFFFFFFFFFFFFFFFFFFFFFFFFFFF55
:102B9000FFFFFFFFFFFFFFFFFFFFFFFFFFFFFFFF45
:102BA000FFFFFFFFFFFFFFFFFFFFFFFFFFFFFFFF35
:102BB000FFFFFFFFFFFFFFFF00B5DFF810B0DFF8FA
:102BC00010A0FFF725FC00BD704700BF00000020EB
:102BD000D8000020FFFFFFFFFFFFFFFFFFFFFFFF09
:00000001FF
