:100000008AEF14F00000000000EF00F00000000094
:0A0010000000000000000000F3D71C
:0E001C000001FCB102D08B9801D08B8812003D
:0E002A000001FCB102D08B9601D08B86120033
:0E0038000001FCB102D08D9601D08D86120021
:0E0046000001FCB102D0899401D0898412001F
:0E0054000001FCB102D08B9C01D08B8C1200FD
:0E0062000001FCB102D08B9401D08B841200FF
:0E0070000001FCB102D08B9A01D08B8A1200E5
:0E007E000001FCB102D08B9E01D08B8E1200CF
:0E008C000001FCB102D08A9201D08A821200DB
:0E009A000001FCB102D08D9401D08D841200C3
:0E00A8000001FCB102D08F9201D08F821200B5
:0E00B6000001FCB102D08F9401D08F841200A3
:0E00C4000001FCB102D08B9801D08B88120095
:0E00D2000001FCB102D08B9601D08B8612008B
:0E00E0000001FCB102D08A9401D08A84120083
:0E00EE000001FCB102D08B9801D08B8812006B
:0E00FC000001FCB102D08B9601D08B86120061
:0E010A000001FCB102D08F9001D08F80120056
:0E0118000001FCB102D08B9A01D08B8A12003C
:0E0126000001FCB102D08B9801D08B88120032
:0E0134000001FCB102D08B9601D08B86120028
:0E0142000001FCB102D08B9201D08B82120022
:0E0150000001FCB102D08B9A01D08B8A120004
:0E015E000001FCB102D08D9001D08D80120006
:10016C000F0121B302D00000FBD7FCC01CFF120012
:0E017C00ACB202D00000FCD7FCC0ADFF1200F8
:0E018A000001FCB102D08B9001D08B801200DE
:0E0198000001FCB102D0899001D089801200D4
:0E01A6000001FCB102D08A9001D08A801200C4
:0E01B4000001FCB102D08D9201D08D821200AC
:0E01C2000001FCB102D0899801D0898812009A
:0E01D0000001FCB102D08B9801D08B88120088
:0E01DE000001FCB102D08B9601D08B8612007E
:0E01EC000001FCB102D0899201D0898212007C
:0E01FA000001FCB102D08B9C01D08B8C120056
:0E0208000001FCB102D08B9E01D08B8E120043
:0E0216000001FCB102D08B9801D08B88120041
:0E0224000001FCB102D08B9601D08B86120037
:1002320068B409D01F0E6614016E0150000A03E172
:0A024200010E006E01D0006A1200E8
:10024C00F250026EF29E0500FF6A0150FE6E0050E5
:08025C00FD6E02BEF28E1200DD
:10026400C7B409D01F0EC514016E0150000A03E182
:0A027400010E006E01D0006A1200B6
:0A027E00000E81B0010E006E1200A8
:0A028800000E82B0010E006E12009D
:0A029200000E80B0010E006E120095
:0A029C00000E82B8010E006E120081
:0A02A600000E84B0010E006E12007D
:0A02B000000E82BE010E006E120067
:0A02BA00000E82B6010E006E120065
:0C02C400000E0F0121B3010E006E1200AD
:1002D000AECF01F0ABA202D0AB98AB8801C000F06A
:0202E00012000A
:0A02E200000E82B8010E006E12003B
:1002EC006BC0F8F06CC0F9F06DC0FAF06EC0FBF0AA
:1002FC000001F66BF76BF751120802E1F6518E080C
:10030C0008E391DF005201E004D00001F64BF72B1B
:10031C00F2D70001120EF75D02E18F0EF65D03E3DA
:10032C007B0E006E24D0668066A020D06B516C11C1
:10033C006D116E111AE0F851F911FA11FB110EE161
:10034C00A1C0E1FFA2C0E2FF050EE66E9FC000F067
:10035C00A0C001F075DF010E006E09D0010E000186
:10036C00F85F000EF95BFA5BFB5BDED7006A1200EC
:0A037C00000E9EBA010E006E120082
:0A038600000EA4BA010E006E120072
:100390001DCF01F00F0122A302D02299228901C0B2
:0403A00000F0120057
:0A03A400000EACB2010E006E120054
:0A03AE00000E82B2010E006E120074
:0A03B800000E82B6010E006E120066
:0A03C200000E82BA010E006E120058
:0A03CC00000E82B8010E006E120050
:0A03D600000E82BC010E006E120042
:0A03E000000E82B4010E006E120040
:0A03EA00000E81B2010E006E120039
:0A03F400000E82BE010E006E120022
:0A03FE00000E82B6010E006E120020
:0A040800000E82B6010E006E120015
:0A041200000E82BC010E006E120005
:0A041C00000E82BA010E006E1200FD
:0A042600000E82B8010E006E1200F5
:0A043000000E84B2010E006E1200EF
:0A043A00000E80B8010E006E1200E3
:0A044400000E80B2010E006E1200DF
:10044E0073C0F6F074C0F7F075C0F8F076C0F9F02E
:10045E00C582C5A21FD0000173517411751176119A
:10046E0018E0F651F711F811F9110CE1ADC0E1FFEA
:10047E00AEC0E2FF060EE66EABC000F0ACC001F0FF
:10048E00DEDE08D0010E0001F65F000EF75BF85BB2
:06049E00F95BDFD712003C
:0404A400C5841200F9
:1004A8006BC0F6F06CC0F7F06DC0F8F06EC0F9F0F4
:1004B800668266A21FD000016B516C116D116E111E
:1004C80018E0F651F711F811F9110CE1A1C0E1FF9C
:1004D800A2C0E2FF060EE66E9FC000F0A0C001F0C9
:1004E800B1DE08D0010E0001F65F000EF75BF85B85
:0604F800F95BDFD71200E2
:1004FE009E96F6C0C9FF73C0F7F074C0F8F075C0D1
:10050E00F9F076C0FAF0C7A421D00001735174112E
:10051E00751176111AE0F751F811F911FA110EE171
:10052E00ADC0E1FFAEC0E2FF040EE66EABC000F060
:10053E00ACC001F084DE010E006E3AD0010E000157
:10054E00F75F000EF85BF95BFA5BDDD773C0F7F06F
:10055E0074C0F8F075C0F9F076C0FAF09EB621D0EE
:10056E00000173517411751176111AE0F751F811DB
:10057E00F911FA110EE1ADC0E1FFAEC0E2FF040EBB
:10058E00E66EABC000F0ACC001F059DE010E006E9D
:10059E000FD0010E0001F75F000EF85BF95BFA5BFE
:1005AE00DDD7C5BC02D0006A03D0C584020E006E32
:0205BE00120029
:1005C0006BC0F8F06CC0F9F06DC0FAF06EC0FBF0D3
:1005D000A19A6686A1BA1FD000016B516C116D11F2
:1005E0006E1118E0F851F911FA11FB110CE1A1C0DC
:1005F000E1FFA2C0E2FF030EE66E9FC000F0A0C0C4
:1006000001F024DE08D0010E0001F85F000EF95B56
:10061000FA5BFB5BDFD700016ACFF7F0F651000A07
:1006200002E1668A01D0669AA19A66886BC0F8F0EA
:100630006CC0F9F06DC0FAF06EC0FBF0A1BA1ED02C
:100640006B516C116D116E1118E0F851F911FA111E
:10065000FB110CE1A1C0E1FFA2C0E2FF030EE66EB8
:100660009FC000F0A0C001F0F1DD08D0010E000134
:10067000F85F000EF95BFA5BFB5BE0D7F7C000F0B8
:02068000120066
:10068200A19AF6C06AFF6BC0F7F06CC0F8F06DC0BB
:10069200F9F06EC0FAF068A421D000016B516C1120
:1006A2006D116E111AE0F751F811F911FA110EE1FC
:1006B200A1C0E1FFA2C0E2FF040EE66E9FC000F0FF
:1006C200A0C001F0C2DD010E006E3AD0010E0001A1
:1006D200F75F000EF85BF95BFA5BDDD76BC0F7F0F2
:1006E2006CC0F8F06DC0F9F06EC0FAF0A1BA21D07A
:1006F20000016B516C116D116E111AE0F751F81176
:10070200F911FA110EE1A1C0E1FFA2C0E2FF040E4D
:10071200E66E9FC000F0A0C001F097DD010E006EF2
:100722000FD0010E0001F75F000EF85BF95BFA5B78
:10073200DDD766BC02D0006A03D06684020E006E6A
:020742001200A3
:100744000B820BAEACEF03F003680268016800682B
:080754000A360232FF0E12000A
:0E075C00026A016A006A086A036A000E12004F
:10076A0073C0F8F074C0F9F075C0FAF076C0FBF007
:10077A000001F66BF76BF751120802E1F6518E0889
:10078A0008E36BDD005201E004D00001F64BF72BC1
:10079A00F2D70001120EF75D02E18F0EF65D03E358
:1007AA007B0E006E24D0C580C5A020D07351741171
:1007BA00751176111AE0F851F911FA11FB110EE1CF
:1007CA00ADC0E1FFAEC0E2FF050EE66EABC000F0C1
:1007DA00ACC001F036DD010E006E09D0010E000139
:1007EA00F85F000EF95BFA5BFB5BDED7006A12006A
:0407FA0066841200FF
:1007FE000B840BAE0AEF04F0010E036E026A016A5F
:0A080E00006A0A360232FF0E1200E3
:080818000AAE029E000E120060
:1008200073C0F8F074C0F9F075C0FAF076C0FBF050
:100830009E96C5869EB61FD0000173517411751126
:10084000761118E0F851F911FA11FB110CE1ADC065
:10085000E1FFAEC0E2FF030EE66EABC000F0ACC03D
:1008600001F0F4DC08D0010E0001F85F000EF95B26
:10087000FA5BFB5BDFD70001C9CFF7F0F651000A46
:1008800002E1C58A01D0C59A9E96C58873C0F8F06A
:1008900074C0F9F075C0FAF076C0FBF09EB61ED0B9
:1008A000735174117511761118E0F851F911FA119C
:1008B000FB110CE1ADC0E1FFAEC0E2FF030EE66E3E
:1008C000ABC000F0ACC001F0C1DC08D0010E0001EB
:1008D000F85F000EF95BFA5BFB5BE0D7F7C000F056
:0208E000120004
:0A08E200000E82B6010E006E120037
:0A08EC00000E82B8010E006E12002B
:0A08F600000E82BA010E006E12001F
:0A090000000E80B4010E006E12001C
:0A090A00000E84B6010E006E12000C
:0A091400000E84B4010E006E120004
:0A091E00000E86B2010E006E1200FA
:0A092800000E82B6010E006E1200F0
:0A093200000E82B8010E006E1200E4
:0A093C00000E86B0010E006E1200DE
:0A094600000E81B4010E006E1200D5
:0A095000000E86B4010E006E1200C6
:10095A000CB0EFEF04F00CA295EF05F00E6A000E52
:10096A00026406EF05F0F00E0214D8A4D1EF04F0E9
:10097A00023A01380F0B02260138F00B016E0038DB
:10098A000F0B01260038F00B006E08380F0B0026FB
:10099A000838F00B086E0E84D89002BEEAEF04F015
:1009AA0008360036013602360E2A02BEEAEF04F095
:1009BA0008360036013602360E2A02BEEAEF04F085
:1009CA0008360036013602360E2A0E5003648BEFC3
:1009DA0005F0035E0BBC08AE90EF05F0D880800EE0
:1009EA0008640030000E002201220222D8A090EFF3
:1009FA0005F0023201320032034A95EF05F090EF1A
:100A0A0005F001C002F000C001F008C000F0086A59
:100A1A00000E0E8602643DEF05F0F00E0214D8A413
:100A2A0025EF05F0023A01380F0B02260138F00BC8
:100A3A00016E00380F0B01260038F00B006E0E8491
:100A4A00D89002BEEAEF04F00036013602360E2ACA
:100A5A0002BEEAEF04F00036013602360E2A02BE62
:100A6A00EAEF04F00036013602360E2AEAEF04F005
:100A7A0001C002F000C001F0006A000E0E960E8856
:100A8A0002646AEF05F0F00E0214D8A455EF05F0DF
:100A9A00023A01380F0B02260138F00B016E0E8460
:100AAA00D89002BEEAEF04F0013602360E2A02BEE0
:100ABA00EAEF04F0013602360E2A02BEEAEF04F02B
:100ACA00013602360E2AEAEF04F001C002F0016A8A
:100ADA00000E0E8602649AEF05F0F00E0214D8A4F6
:100AEA0079EF05F0023A0E84D89002BEEAEF04F0DC
:100AFA0002360E2A02BEEAEF04F002360E2A02BEBF
:100B0A00EAEF04F002360E2AEAEF04F0010E0C6E48
:100B1A0071DE9DEF05F0020E0C6E79DE9DEF05F099
:100B2A00040E0C6E0ADE9DEF05F0080E0C6E11DE47
:020B3A001200A7
:100B3C000001EC6BED6BC3C000F0C4C001F026ECFF
:100B4C0001F000C0ECF0000E0001ED6FECC000F005
:060B5C00EDC001F01200E3
:100B62007C0E0001B76F010EB86FFC0EB96F000E5C
:100B7200BA6FD00EBF6F020EC06F000EC16F000EB3
:100B8200C26F7C0EBB6F030EBC6F000EBD6F000EFA
:100B9200BE6FA40EAF6F030EB06F000EB16F000EEA
:100BA200B26FAC8A900EAB6E948E949C9EAA03D0C8
:080BB200AECF00F0FBD71200EA
:100BBA006C0E0001B76F010EB86FFC0EB96F000E14
:100BCA00BA6F900EBF6F030EC06F000EC16F000E9A
:100BDA00C26F860EBB6F030EBC6F000EBD6F000E98
:100BEA00BE6FC40EAF6F020EB06F000EB16F000E73
:100BFA00B26F0F01218B900E226F98849892A4AA4B
:0A0C0A0003D01DCF00F0FBD712004D
:100C1400640E0001976F020E986F000E996F000E1C
:100C24009A6F6A0E7B6F070E7C6F000E7D6F000E4D
:100C34007E6F4E0E7F6F040E806F000E816F000E6C
:100C4400826F200E776F080E786FF60E796F000EA4
:100C54007A6FFE0EA76F040EA86FF60EA96F000E32
:100C6400AA6FA40EA36F040EA46F000EA56F000E4E
:100C7400A66F949894968B988B9694889486C79E26
:080C8400C79C380EC66E120079
:100C8C000C6A0E6A0250D8A45FEF06F001C002F0A5
:100C9C0000C001F0006A0E860250D8A45FEF06F087
:100CAC0001C002F0016A0E960E880250D8B471EFA2
:100CBC0006F00E50035ED8A4D8A076EF06F0D890BC
:100CCC0002BE7BEF06F0003601360236032E66EFCD
:100CDC0006F076EF06F0010E0C6E3ADD7EEF06F0B4
:100CEC00020E0C6E86DD7EEF06F0040E0C6E8EDDB1
:020CFC001200E4
:100CFE000001F46BF56BEDC0F2F0EEC0F3F0ECC05A
:100D0E0000F0003600900080C9C0E1FFCAC0E2FFCB
:100D1E0000C0E6FFC7C000F0C8C001F026EC01F02D
:100D2E0000500001F413000EF513010EEF5F000EDC
:100D3E00F05BEF51F01116E0CEC0E1FFCFC0E2FF45
:100D4E00010EE66ECCC000F0CDC001F026EC01F035
:100D5E00F2C0E1FFF3C0E2FF00C0E6FF0001F24B7C
:100D6E00F32BE3D7CEC0E1FFCFC0E2FFE66ACCC0E3
:100D7E0000F0CDC001F026EC01F0F2C0E1FFF3C0AF
:100D8E00E2FF00C0E6FF0001F151000A06E1D0C00B
:100D9E0000F0D1C001F026EC01F00001F151010A82
:100DAE0006E1D4C000F0D5C001F026EC01F0F4C08D
:080DBE0000F0F5C001F0120085
:100DC600025006180E6E086A096A0B6A0350076419
:100DD600D6EF07F006500A6E068E028E03500B6E93
:100DE6000750036E000E0B6426EF07F00B50075EEC
:100DF600D8B4C7EF07F0070E076495EF07F0075E54
:100E060000C008F001C000F002C001F0026A074EFF
:100E1600C7EF07F007646AEF07F0075E00C008F047
:100E260001C000F0016A074EC7EF07F0076448EFFC
:100E360007F0075E00C008F0006A074EC7EF07F02C
:100E460007642FEF07F00AC002F005C001F004C0E6
:100E560000F0086AF3EF08F0030E07643AEF07F0B4
:100E6600075E08380F0B086E074EC7EF07F0D890DD
:100E76000832074EC7EF07F0D8900832074EC7EF83
:100E860007F0D8900832C7EF07F0030E076459EF52
:100E960007F0075E08380F0B086E0038F00B0826BF
:100EA60000380F0B006E074EC7EF07F0D8900032E0
:100EB6000832074EC7EF07F0D89000320832074EC7
:100EC600C7EF07F0D89000320832C7EF07F0030EDD
:100ED600076481EF07F0075E08380F0B086E0038CD
:100EE600F00B082600380F0B006E0138F00B0026B9
:100EF60001380F0B016E074EC7EF07F0D89001328D
:100F060000320832074EC7EF07F0D89001320032A0
:100F16000832074EC7EF07F0D89001320032083288
:100F2600C7EF07F0030E0764B2EF07F0075E083855
:100F36000F0B086E0038F00B082600380F0B006EFA
:100F46000138F00B002601380F0B016E0238F00B4A
:100F5600012602380F0B026E074EC7EF07F0D89036
:100F66000232013200320832074EC7EF07F0D8903E
:100F76000232013200320832074EC7EF07F0D8902E
:100F86000232013200320832096A000E0EAEBBEFA1
:100F960008F0081E001E011E021E082A0022012259
:100FA6000222BBEF08F00750D8A4DCEF07F0F3EFFE
:100FB60008F0096A02C00AF0028E068E0750035C2A
:100FC600076ED8B4AEEF08F0070E07647CEF08F0A2
:100FD600075E0450096E0550046E0650056E066ADB
:100FE600074EAEEF08F0070E076451EF08F0075EF4
:100FF6000450096E0550046E056A074EAEEF08F000
:10100600070E07642FEF08F0075E0450096E046AA6
:10101600074EAEEF08F0070E076416EF08F00AC099
:1010260002F0F3EF08F0030E076421EF08F0075E05
:1010360009380F0B096E074EAEEF08F0D89009324B
:10104600074EAEEF08F0D8900932074EAEEF08F023
:10105600D8900932AEEF08F0030E076440EF08F0AF
:10106600075E09380F0B096E0438F00B09260438A1
:101076000F0B046E074EAEEF08F0D890043209321B
:10108600074EAEEF08F0D89004320932074EAEEFA5
:1010960008F0D89004320932AEEF08F0030E076468
:1010A60068EF08F0075E09380F0B096E0438F00B7D
:1010B600092604380F0B046E0538F00B0426053894
:1010C6000F0B056E074EAEEF08F0D89005320432CE
:1010D6000932074EAEEF08F0D890053204320932D5
:1010E600074EAEEF08F0D890053204320932AEEF63
:1010F60008F0030E076499EF08F0075E09380F0B36
:10110600096E0438F00B092604380F0B046E0538F7
:10111600F00B042605380F0B056E0638F00B052676
:1011260006380F0B066E074EAEEF08F0D890063263
:10113600053204320932074EAEEF08F0D890063277
:10114600053204320932074EAEEF08F0D890063267
:10115600053204320932086A000E0EAEBBEF08F003
:10116600091E041E051E061E092A04220522062241
:10117600095008260450002205500122065002227A
:101186000EBED2EF08F0D8A0E1EF08F0023201322D
:1011960000320832033EE1EF08F0EDEF08F0D8B078
:1011A600E7EF08F0000E081E001E011E021E082AA8
:1011B6000022012202220A7EE7EF08F0010E0C6EE1
:1011C600ADEC04F0F5EF08F0020E0C6EADEC04F099
:1011D600F5EF08F0040E0C6EA2EC03F0F5EF08F044
:0611E600000E0C6E120069
:1011EC000001F46BF56BEDC0F2F0EEC0F3F0ECC067
:1011FC0000F000360090C9C0E1FFCAC0E2FF00C099
:10120C00E6FFC7C000F0C8C001F026EC01F00050AA
:10121C000001F413000EF513EFC000F0F0C001F064
:10122C00010EEF5F000EF05B0050011018E0C9C01A
:10123C00E1FFCAC0E2FFF2C0E9FFF3C0EAFFEECF64
:10124C00E6FFC7C000F0C8C001F026EC01F000506A
:10125C000001F413000EF513F24BF32BDDD7F15113
:10126C00000A06E1D0C000F0D1C001F026EC01F07C
:10127C000001F151010A06E1D4C000F0D5C001F023
:0E128C0026EC01F0F4C000F0F5C001F01200F5
:10129A00E6C0F6FFE7C0F7FFE8C0F8FF0900F5CFA0
:1012AA00C3F00900F5CFC4F00900F5CFC5F0090075
:1012BA00F5CFC6F0040E0001E625F66E000EE72112
:1012CA00F76E000EE821F86E0900F5CFD0F009009C
:1012DA00F5CFD1F00900F5CFD2F00900F5CFD3F060
:1012EA00080EE625F66E000EE721F76E000EE821DD
:1012FA00F86E0900F5CFD4F00900F5CFD5F0090052
:10130A00F5CFD6F00900F5CFD7F00C0EE625F66E2C
:10131A00000EE721F76E000EE821F86E0900F5CFFE
:10132A00C7F00900F5CFC8F00900F5CFC9F00900E8
:10133A00F5CFCAF0100EE625F66E000EE721F76E1D
:10134A00000EE821F86E0900F5CFCCF00900F5CFC0
:10135A00CDF00900F5CFCEF00900F5CFCFF012009D
:10136A00E6C0E9F0E7C0EAF0E8C0EBF00BD0A00E67
:10137A00C86E4BDC44D0280EC86E47DC40D0040E41
:10138A00006E3FD0E9C0F6FFEAC0F7FFEBC0F8FFF6
:10139A000900F5CF01F00900F5CF02F00900F5CFF9
:1013AA0003F00900F5CF04F00450000A08E10350E5
:1013BA00010A05E10250860A02E10150A00AD7E0BB
:1013CA00E9C0F6FFEAC0F7FFEBC0F8FF0900F5CF66
:1013DA0001F00900F5CF02F00900F5CF03F009008A
:1013EA00F5CF04F00450000A08E10350060A05E1AB
:1013FA0002501A0A02E10150800ABDE0C0D7000E6D
:04140A00006E12005E
:10140E00E6C0E7F09EEC05F0CBC0ECF0E70EED6F1A
:10141E00000EEE6F010EEF6F000EF06FF16BDFDE60
:10142E009EEC05F0CBC0ECF0E80EED6F000EEE6F0B
:10143E00020EEF6F000EF06FF16B5ADCE8C000F099
:02144E0012008A
:10145000080E0001E625F66E000EE721F76E000E7D
:10146000E821F86E0900F5CFB3F00900F5CFB4F02C
:0E1470000900F5CFB5F00900F5CFB6F0120077
:10147E00E6C0E9F0E7C0EAF0E8C0EBF00DD0A00E50
:10148E00C86E0AEC06F045D0280EC86E0AEC06F0BF
:10149E0040D0040E006E3FD0E9C0F6FFEAC0F7FF61
:1014AE00EBC0F8FF0900F5CF01F00900F5CF02F00F
:1014BE000900F5CF03F00900F5CF04F00450000A3F
:1014CE0008E10350010A05E10250860A02E10150CB
:1014DE00A00AD5E0E9C0F6FFEAC0F7FFEBC0F8FFBF
:1014EE000900F5CF01F00900F5CF02F00900F5CFA4
:1014FE0003F00900F5CF04F00450000A08E1035090
:10150E00060A05E102501A0A02E10150800ABCE007
:08151E00C0D7000E006E1200A0
:101526003ED00F0120870D0E1F6F040E1E6F218502
:10153600DDEC05F083D00F012087060E1F6F820EAB
:101546001E6F2185DDEC05F079D00F012087030E93
:101556001F6F400E1E6F2185DDEC05F06FD00F0169
:101566002087010E1F6FA00E1E6F2185DDEC05F092
:1015760065D00F012087010E1F6F150E1E6F218586
:10158600DDEC05F05BD00F0120871F6B8A0E1E6F06
:101596002185DDEC05F052D0060E006E59D0000E06
:1015A600006E0001E91908E10050E81905E1120E84
:1015B600E71902E1E651C00AB4E0000E006EE9192F
:1015C60008E10050E81905E1250EE71902E1E651A8
:1015D600800AB1E0000E006EE91908E10050E81932
:1015E60005E14B0EE71902E1E651000AAEE0000EF6
:1015F600006EE91908E10050E81905E1960EE719B1
:1016060002E1E651000AABE0000E006EE91908E1BE
:101616000050E81905E1E10EE71902E1E651000A7A
:10162600A8E0E951000A08E1E851010A05E1E7519D
:10163600C20A02E1E651000AA6E0AED700016C0E2E
:101646009B6F010E9C6FFC0E9D6F000E9E6F006AD5
:02165600120080
:1016580027D0CF0EAF6EAC94B1EC05F070D0670E0A
:10166800AF6EAC94B1EC05F06AD0CF0EAF6EAC841F
:10167800B1EC05F064D0670EAF6EAC84B1EC05F048
:101688005ED0440EAF6EAC84B1EC05F058D0220E9B
:10169800AF6EAC84B1EC05F052D0060E006E58D097
:1016A8000001000E006EE91908E10050E81905E193
:1016B800120EE71902E1E651C00ACBE0000E006EF7
:1016C800E91908E10050E81905E1250EE71902E1DA
:1016D800E651800AC4E0000E006EE91908E10050E6
:1016E800E81905E14B0EE71902E1E651000ABDE0F1
:1016F800000E006EE91908E10050E81905E1960EA0
:10170800E71902E1E651000AB6E0000E006EE91999
:1017180008E10050E81905E1E10EE71902E1E65198
:10172800000AAFE0E951000A08E1E851010A05E1C1
:10173800E751C20A02E1E651000AA9E0AED77C0EE1
:101748009B6F010E9C6FFC0E9D6F000E9E6F006AD2
:0217580012007D
:10175A0027D0CF0EAF6EAC94B1EC05F070D0670E07
:10176A00AF6EAC94B1EC05F06AD0CF0EAF6EAC841C
:10177A00B1EC05F064D0670EAF6EAC84B1EC05F045
:10178A005ED0440EAF6EAC84B1EC05F058D0220E98
:10179A00AF6EAC84B1EC05F052D0060E006E58D094
:1017AA000001000E006EE91908E10050E81905E190
:1017BA00120EE71902E1E651C00ACBE0000E006EF4
:1017CA00E91908E10050E81905E1250EE71902E1D7
:1017DA00E651800AC4E0000E006EE91908E10050E3
:1017EA00E81905E14B0EE71902E1E651000ABDE0EE
:1017FA00000E006EE91908E10050E81905E1960E9D
:10180A00E71902E1E651000AB6E0000E006EE91996
:10181A0008E10050E81905E1E10EE71902E1E65195
:10182A00000AAFE0E951000A08E1E851010A05E1BE
:10183A00E751C20A02E1E651000AA9E0AED77C0EDE
:10184A009B6F010E9C6FFC0E9D6F000E9E6F006ACF
:02185A0012007A
:10185C009DC0E1FF9EC0E2FFE6C0E9FFE7C0EAFFE2
:10186C00EECFE6FF9BC000F09CC001F026EC01F02F
:04187C00006A1200EC
:1018800027D0CF0EAF6EAC94B1EC05F070D0670EE0
:10189000AF6EAC94B1EC05F06AD0CF0EAF6EAC84F5
:1018A000B1EC05F064D0670EAF6EAC84B1EC05F01E
:1018B0005ED0440EAF6EAC84B1EC05F058D0220E71
:1018C000AF6EAC84B1EC05F052D0060E006E58D06D
:1018D0000001000E006EE91908E10050E81905E169
:1018E000120EE71902E1E651C00ACBE0000E006ECD
:1018F000E91908E10050E81905E1250EE71902E1B0
:10190000E651800AC4E0000E006EE91908E10050BB
:10191000E81905E14B0EE71902E1E651000ABDE0C6
:10192000000E006EE91908E10050E81905E1960E75
:10193000E71902E1E651000AB6E0000E006EE9196F
:1019400008E10050E81905E1E10EE71902E1E6516E
:10195000000AAFE0E951000A08E1E851010A05E197
:10196000E751C20A02E1E651000AA9E0AED77C0EB7
:101970009B6F010E9C6FFC0E9D6F000E9E6F006AA8
:02198000120053
:10198200E6C0E9F0E7C0EAF0E8C0EBF00DD0A00E47
:10199200C86E0AEC06F045D0280EC86E0AEC06F0B6
:1019A20040D0040E006E3FD0E9C0F6FFEAC0F7FF58
:1019B200EBC0F8FF0900F5CF01F00900F5CF02F006
:1019C2000900F5CF03F00900F5CF04F00450000A36
:1019D20008E10350010A05E10250860A02E10150C2
:1019E200A00AD5E0E9C0F6FFEAC0F7FFEBC0F8FFB6
:1019F2000900F5CF01F00900F5CF02F00900F5CF9B
:101A020003F00900F5CF04F00450000A08E1035086
:101A1200060A05E102501A0A02E10150800ABCE0FE
:081A2200C0D7000E006E120097
:101A2A0059D00001E7B102D0929201D092820F01FF
:101A3A00259376D00001E7B102D0929801D092881E
:101A4A006FD00001E7B102D0969201D0968268D099
:101A5A000001E7B102D0949601D0948661D00001CA
:101A6A00E7B102D0949801D094885AD00001E7B126
:101A7A0002D0949A01D0948A53D00001E7B102D0DF
:101A8A00949401D094844CD00001E7B102D093928F
:101A9A0001D0938245D00001E7B102D0949E01D0D3
:101AAA00948E3ED00001E7B102D0949C01D0948C70
:101ABA0037D00001E7B102D0949601D0948630D095
:101ACA000001E7B102D0949801D0948829D0010E80
:101ADA00006E28D00001E651000AA3E0E651010A8F
:101AEA00A9E0E651020AADE0E651030AB1E0E65187
:101AFA00040AB5E0E651050AB9E0E651060ABDE076
:101B0A00E651070AC1E0E651080AC5E0E651090AAA
:101B1A00C9E0E6510A0ACDE0E6510B0AD1E0D7D76F
:061B2A00000E006E120027
:101B3000E6C004F0E7C005F004C002F005C003F001
:101B4000044A052AE8C000F0E9C001F00001E84BB2
:101B5000E92B00C0E9FF01C0EAFF02C0E1FF03C0BA
:101B6000E2FFEECFE6FF02C0E9FF03C0EAFFEE525C
:0E1B700001E0E2D7E6C000F0E7C001F012008D
:101B7E000A6A0350D8A40A800750D8A40A820A50D1
:101B8E00D8B422EF0EF0030AD8B4DBEF0DF00AB092
:101B9E00D6EF0DF006AE20EF0EF01EEF0EF002AEF9
:101BAE001EEF0EF020EF0EF00250800B0A6E029E1A
:101BBE000650800B069E0A18D8B4ECEF0DF00A50B2
:101BCE00D8B41EEF0EF020EF0EF00750035CD8B421
:101BDE00F6EF0DF0D8A012EF0EF018EF0EF0065043
:101BEE00025CD8B400EF0EF0D8A012EF0EF018EF92
:101BFE000EF00550015CD8B40AEF0EF0D8A012EF2B
:101C0E000EF018EF0EF00450005CD8B422EF0EF078
:101C1E00D8B018EF0EF00A52D8B420EF0EF01EEF27
:101C2E000EF00A52D8B41EEF0EF020EF0EF0D88050
:0E1C3E001200D8901200D880D8841200120034
:081C4C00067EE3EC06F0120035
:101C5400086A096A000E07620364AFEF0EF00250CF
:101C640006180A6E075003267E0ED8A040EF0EF029
:101C7400035ED8B0B4EF0EF044EF0EF0035ED8A0CC
:101C8400B9EF0EF0028E068E02C00EF001C00BF00A
:101C940000C00DF000500402F4CF0CF00150050216
:101CA400F4CF00F0F3CF08F00402F3500C26F45004
:101CB4000822000E00220D500502F3500C26F450A9
:101CC4000822000E002202500402F3500826F450A9
:101CD400002202500502016A000E0122F350002680
:101CE400F45001220D500602F3500826F45000224D
:101CF400026A000E012202220B500602F350002653
:101D0400F4500122000E02220E500602F350012666
:101D1400F450022202BE97EF0EF008360036013668
:101D240002360306D8B4B9EF0EF0AAEF0EF0D8804D
:101D3400800E08640030000E002201220222D8A086
:101D4400AAEF0EF0023201320032034AB4EF0EF071
:101D54000AAE029E000EBCEF0EF0010EAEEC03F0D4
:101D6400BCEF0EF0020EA2EC03F0BCEF0EF0040E7A
:061D7400FFEC03F0120079
:101D7A0059D00001E7B102D0929001D092800F01B0
:101D8A00259176D00001E7B102D0949001D09480D9
:101D9A006FD00001E7B102D0969001D0968068D04A
:101DAA000001E7B102D0949601D0948661D0000177
:101DBA00E7B102D0949801D094885AD00001E7B1D3
:101DCA0002D0949A01D0948A53D00001E7B102D08C
:101DDA00949201D094824CD00001E7B102D0939042
:101DEA0001D0938045D00001E7B102D0949E01D082
:101DFA00948E3ED00001E7B102D0949C01D0948C1D
:101E0A0037D00001E7B102D0949601D0948630D041
:101E1A000001E7B102D0949801D0948829D0010E2C
:101E2A00006E28D00001E651000AA3E0E651010A3B
:101E3A00A9E0E651020AADE0E651030AB1E0E65133
:101E4A00040AB5E0E651050AB9E0E651060ABDE022
:101E5A00E651070AC1E0E651080AC5E0E651090A57
:101E6A00C9E0E6510A0ACDE0E6510B0AD1E0D7D71C
:061E7A00000E006E1200D4
:101E8000E6C0E8F0E7C0E9F0E7C0EAF09EEC05F054
:101E9000CBC0ECF0E80EED6F000EEE6F030EEF6FAF
:0C1EA000000EF06FF16BF6EC08F0120081
:101EAC000050086E0150006E016A026A036A0B6AE8
:101EBC000C6A960E036E0A6A00C001F008C000F0AE
:0A1ECC00086A026A46EC06F01200F4
:101ED6005DD00001E7B102D0929401D092840F0147
:101EE60025957AD00001E7B102D0969601D0968664
:101EF60073D00001E7B102D0969401D096846CD0DD
:101F06000001E7B102D0949601D0948665D0000115
:101F1600E7B102D0949801D094885ED00001E7B171
:101F260002D0949A01D0948A57D00001E7B102D02A
:101F3600989001D0988050D00001E7B102D09394D8
:101F460001D0938449D00001E7B102D0989401D022
:101F560098840F01239540D00001E7B102D09892F2
:101F660001D098820F01239337D00001E7B102D048
:101F7600949601D0948630D00001E7B102D09498AF
:101F860001D0948829D0010E006E28D00001E651B8
:101F9600000A9FE0E651010AA5E0E651020AA9E01F
:101FA600E651030AADE0E651040AB1E0E651050A3E
:101FB600B5E0E651060AB9E0E651070ABDE0E6518A
:101FC600080AC1E0E651090AC7E0E6510A0ACDE06F
:0E1FD600E6510B0AD1E0D7D7000E006E1200C4
:101FE4000D6A086A0050D8B4000C04180A6E0ABEC0
:101FF4000D1E0B6A04AE02D0041E042A00AE02D0E9
:10200400001E002A005004100A6E0ABE1FD004509D
:10201400085E003600340836045008260036060EE2
:102024000C6E00340836045000B0085E00A0082688
:1020340000360C2EF6D700A008260BB015D00DAE36
:10204400000C001E002A081E082A000C04AE09D049
:1020540000BE04D00050086E006AF1D7006A002A5E
:10206400000C001E0B2AD3D7082A0450085CD8A4FD
:0E207400E6D7086A002A00AEE2D7FF0C120081
:102082001DD0D9C0E6F0DAC0E7F0DBC0E8F078DCBA
:1020920020D0D9C0E6F0DAC0E7F0DBC0E8F0B5EC5A
:1020A20009F017D0D9C0E6F0DAC0E7F0DBC0E8F0FB
:1020B2003FEC0AF00ED0010E006E0BD00001D85199
:1020C200000ADFE0D851010AE4E0D851020AEAE04E
:0420D200F2D712002F
:1020D6002FD0D9C0E6F0DAC0E7F0DBC0E8F0DCC00C
:1020E600E9F040EC0CF032D0D9C0E6F0DAC0E7F007
:1020F600DBC0E8F0DCC0E9F02CEC0BF027D0D9C04F
:10210600E6F0DAC0E7F0DBC0E8F0DCC0E9F093EC1B
:102116000AF01CD0D9C0E6F0DAC0E7F0DBC0E8F080
:10212600DCC0E9F0ADEC0BF011D0010E006E0ED064
:102136000001D851000ACDE0D851010AD5E0D851A6
:0E214600020ADDE0D851100AE5E0EFD71200E2
:1021540015D0D9C0E6F0DAC0E7F00DDE1AD0D9C048
:10216400E6F0DAC0E7F05FDC14D0D9C0E6F0DAC0FC
:10217400E7F0AFDE0ED0010E006E0BD00001D85197
:10218400000AE7E0D851010AEAE0D851020AEDE07A
:04219400F2D712006C
:10219800520E0B6E2B0E0C6E000E0D6E0D2EFED712
:0C21A8000C2EFCD70B2EFAD70000120002
:1021B400010E0001E66F010ED811E76F5FDE120019
:1021C4000001E46BE56BD8C0E0F0D9C0E1F0DAC0FF
:1021D400E2F0DBC0E3F0E351FF0A08E1E251FF0A59
:1021E40005E1E151FF0A02E1E051FF0A0CE1DCC024
:1021F400E6F0DDC0E7F0650EE86F000EE96F96DCEF
:10220400030E006EE9D1010EDE6FE2AF0ED0800E38
:10221400E219006E00C0E2F0DE2BDCC0E1FFDDC09D
:10222400E2FF2D0EE66EDC4BDD2B000E006EE31993
:1022340008E10050E21905E10050E11902E1E05122
:10224400000A0BE1DCC0E6F0DDC0E7F0690EE86FE0
:10225400000EE96F6BDC006ABFD1E351FF0A08E1AD
:10226400E251000A05E1E151000A02E1E051000AED
:102274000CE1DCC0E6F0DDC0E7F06F0EE86F000EA5
:10228400E96F54DCDEC000F0A7D1000E046E000E2E
:10229400056E000E066E7F0E076EE0C000F0E1C012
:1022A40001F0E2C002F0E3C003F067DC010ED8B035
:1022B400000E006E00521BE0E0C000F0E1C001F02F
:1022C400E2C002F0E3C003F0000E046E000E056EDF
:1022D400200E066E820E076EBBDC00C0E0F001C06B
:1022E400E1F002C0E2F003C0E3F0E507CED7000E50
:1022F400046E000E056E200E066E820E076EE0C0A0
:1023040000F0E1C001F0E2C002F0E3C003F035DC0C
:10231400000ED8B0010E006E00521BE0E0C000F0C9
:10232400E1C001F0E2C002F0E3C003F0CD0E046EA0
:10233400CC0E056E4C0E066E7B0E076E89DC00C05B
:10234400E0F001C0E1F002C0E2F003C0E3F0E52BED
:10235400CED7FF0EE015086EFF0EE115096E7F0E55
:10236400E2150A6E000EE3150B6E08C004F009C0F6
:1023740005F00AC006F00BC007F0043604900536D9
:1023840006360736000EE015006E000EE115016EEC
:10239400000EE215026EFF0EE315036E00C0E0F0BE
:1023A40001C0E1F002C0E2F003C0E3F00450E01128
:1023B400006E0550E111016E0650E211026E0750E5
:1023C400E311036E00C0E0F001C0E1F002C0E2F0EE
:1023D40003C0E3F07F0EE35D006E00C0DFF0010E8A
:1023E400E36F00C004F0E0C000F0E1C001F0E2C01F
:1023F40002F0E3C003F0045007E000360090013619
:1024040002360336FF0FF8D700C0E0F001C0E1F058
:1024140002C0E2F003C0E3F0DCC0E1FFDDC0E2FF94
:10242400E351300FE66EDC4BDD2B800EE519006EB8
:10243400800E010A005C08E3800E060A006E800E1E
:10244400E519005C01E30AD0DCC0E1FFDDC0E2FF76
:102454002E0EE66EDC4BDD2B010EE46F060EDF6FF5
:10246400DF51000A54E0E36BE0C000F0E1C001F08A
:10247400E2C002F0E3C003F00036009001360236F9
:10248400033600360090013602360336E05100264A
:10249400E1510122E2510222E351032200C0E0F0A3
:1024A40001C0E1F002C0E2F003C0E3F0E0C000F0DC
:1024B400E1C001F0E2C002F0E3C003F00036009096
:1024C40001360236033600C0E0F001C0E1F002C07C
:1024D400E2F003C0E3F0DCC0E1FFDDC0E2FFE35162
:1024E400300FE66EDC4BDD2BE451000A0EE1E5070C
:1024F400E551000A0AE1DCC0E1FFDDC0E2FF2E0E77
:10250400E66EDC4BDD2B010EE46FDF07A9D7FF0E6F
:10251400DC25E96EFF0EDD21EA6EEE50300A05E19E
:10252400010EDC5F000EDD5BF2D7FF0EDC25E96EE9
:10253400FF0EDD21EA6EEE502E0A04E1010EDC5F8F
:10254400000EDD5BE551000A41E0DCC0E1FFDDC0C7
:10255400E2FF650EE66EDC4BDD2B800EE519006EA6
:10256400800E000A005C0BE2DCC0E1FFDDC0E2FF8C
:102574002D0EE66EDC4BDD2BE5510008E56FE5C062
:10258400DFF0800E090A006E800EE519005C0EE291
:102594000A0E046EDFC000F023DDDCC0E1FFDDC005
:1025A400E2FF0050300FE66EDC4BDD2B0A0E046EAA
:1025B400DFC000F015DD08C000F0DCC0E1FFDDC0C5
:1025C400E2FF0050300FE66EDC4BDD2BDCC0E1FF98
:0A25D400DDC0E2FFE66A006A1200B3
:1025DE00070E0001E66F07EC0AF000C0D8F0060EF9
:1025EE000001E66F07EC0AF0070E0001D815D96F4F
:1025FE00DA6B000EDA17000EDA6FD9C003F0026A3A
:10260E0002C0D9F003C0DAF0000E016E02500012C3
:10261E000350011200C0D9F001C0DAF040DC000E08
:10262E00046E800E056E410E066E880E076E26EC49
:10263E000EF0CD0E046ECC0E056E4C0E066E7B0E9D
:08264E00076E2AEC0EF01200E9
:10265600040E0001E66F07EC0AF000C0D8F0050E84
:102666000001E66F07EC0AF0030E00140001D96FB3
:10267600DA6B000EDA17000EDA6FD9C001F0006AC5
:1026860000C0D9F001C0DAF0D8510012000E0112D4
:1026960000C0D9F001C0DAF006DC000E046E000EB0
:1026A600056E480E066E7B0E076E2AEC0EF01200C3
:1026B600090E0B6E1E0E0C6EE40E0D6E0D2EFED761
:0C26C6000C2EFCD70B2EFAD700001200DF
:1026D200D8C0DBF0D9C0DCF00D0E0001DD6F0A0EB0
:1026E200DE6F3AD0DBC0E6F0DCC0E7F02EEC0CF097
:1026F2003ED0DBC0E9FFDCC0EAFFEE520AE0DBC0FD
:10270200E6F0DCC0E7F02EEC0CF00001DB4BDC2B3A
:10271200F0D72DD0DBC0E9FFDCC0EAFFEE520AE0C1
:10272200DBC0E6F0DCC0E7F02EEC0CF00001DB4B86
:10273200DC2BF0D70001DD0EE66F000EE76F2EEC0A
:102742000CF0DE0E0001E66F000EE76F2EEC0CF0CF
:102752000ED0060E006E0CD00001DA51000AC2E063
:10276200DA51010AC6E0DA51020AD4E0F2D7006A6D
:02277200120053
:10277400DEC0CBF0DBC0E6F0DCC0E7F0DDC0E8F0A3
:102784004DEC09F0D8C0E6F0D9C0E7F0DAC0E8F0C3
:0627940028EC0AF012001F
:10279A00B5C0E1FFB6C0E2FFD8C0E6FFB3C000F0A3
:0A27AA00B4C001F026EC01F01200AB
:1027B4000001D86B020ED96FDA6BCADC0001D86B4A
:1027C400F80ED96F290EDA6F000EDB6F58DC100E8D
:1027D4000001D86F800ED96F250EDA6F000EDB6F03
:1027E400DC6F77DC150E0001D86F000ED96F020E76
:0827F400DA6F6DDF5EDF1200F9
:1027FC000900F5CFE6FF0006FBE10106F9E1120046
:10280C00840E0001D86F290ED96F000EDA6FE40E1A
:10281C00DB6F290EDC6F000EDD6F7F0EDE6FA4DF29
:10282C00010ED86FB4DF520E0B6E2B0E0C6E000E19
:10283C000D6E0D2EFED70C2EFCD70B2EFAD70000EA
:10284C00000E0001E66F000EE76F40EC0FF0120077
:10285C00080E006E040E00100001D86FA5DCB9DE66
:10286C0000C044F001C045F002C046F003C047F080
:10287C00ECDE00C040F001C041F002C042F003C0E9
:10288C0043F044C0D8F045C0D9F046C0DAF047C098
:10289C00DBF0830EDC6F000EDD6F8EDC550ED86F17
:1028AC00000ED96F010EDA6F0EDF830E0001D86FA8
:1028BC00000ED96F020EDA6F06DF40C0D8F041C0AF
:1028CC00D9F042C0DAF043C0DBF0830E0001DC6FBC
:1028DC00000EDD6F71DC480ED86F000ED96F010E43
:1028EC00DA6FF1DE830E0001D86F000ED96F020E85
:1028FC00DA6FE9DE2A0E0001D86F000ED96F020ED6
:08290C00DA6FE1DE43DC12008A
:0E291400FEEC14F04DDF78DF9FDFFED7FFD71B
:1029FC0010EE15F0620E006E010E016E220EF66ED8
:0E2A0C00290EF76E000EF86EFEEC13F01200AD
:10292200202D2D2D2053797374656D20496E6974A5
:05293200202D2D2D00F9
:102937002D2D2D2D2D2D2D2D2D2D2D2D2D2D2D2DC0
:062947002D2D2D2D2D00A9
:04294D000000000086
:042951000000000082
:0D2955002048756D6964697479203A20008E
:102962002054656D7065726174757265203A20003D
:042972004E614E0064
:0229760030002F
:04297800000000005B
:04297C00494E46007A
:042980000000000053
:102984009801FC008A01FC005E01FC003401FC009B
:102994002601FC005001FC004201FC00A601FC00E1
:1029A4000802FC00FA01FC002402FC001602FC00F0
:1029B4009202000088020000A6020000BA02000091
:1029C4009C0200001C040000AE0300007E02000014
:1029D400B0020000120400000804000026040000F5
:1029E4006A070000A40400004E040000FE04F60080
:0429F4002008F600C1
:0429F800A0860100B4
:020000040030CA
:0E00000015137F7CF98B91FFFFC0FFE0FF40DE
:00000001FF
